{
  "contractName": "CacheGold",
  "abi": [
    {
      "inputs": [
        {
          "internalType": "address",
          "name": "unbackedTreasury",
          "type": "address"
        },
        {
          "internalType": "address",
          "name": "backedTreasury",
          "type": "address"
        },
        {
          "internalType": "address",
          "name": "feeAddress",
          "type": "address"
        },
        {
          "internalType": "address",
          "name": "redeemAddress",
          "type": "address"
        },
        {
          "internalType": "address",
          "name": "oracle",
          "type": "address"
        }
      ],
      "payable": false,
      "stateMutability": "nonpayable",
      "type": "constructor"
    },
    {
      "anonymous": false,
      "inputs": [
        {
          "indexed": true,
          "internalType": "address",
          "name": "account",
          "type": "address"
        },
        {
          "indexed": false,
          "internalType": "uint256",
          "name": "feePerYear",
          "type": "uint256"
        }
      ],
      "name": "AccountInactive",
      "type": "event"
    },
    {
      "anonymous": false,
      "inputs": [
        {
          "indexed": true,
          "internalType": "address",
          "name": "account",
          "type": "address"
        }
      ],
      "name": "AccountReActive",
      "type": "event"
    },
    {
      "anonymous": false,
      "inputs": [
        {
          "indexed": false,
          "internalType": "uint256",
          "name": "amount",
          "type": "uint256"
        }
      ],
      "name": "AddBackedGold",
      "type": "event"
    },
    {
      "anonymous": false,
      "inputs": [
        {
          "indexed": true,
          "internalType": "address",
          "name": "owner",
          "type": "address"
        },
        {
          "indexed": true,
          "internalType": "address",
          "name": "spender",
          "type": "address"
        },
        {
          "indexed": false,
          "internalType": "uint256",
          "name": "value",
          "type": "uint256"
        }
      ],
      "name": "Approval",
      "type": "event"
    },
    {
      "anonymous": false,
      "inputs": [
        {
          "indexed": true,
          "internalType": "address",
          "name": "previousOwner",
          "type": "address"
        },
        {
          "indexed": true,
          "internalType": "address",
          "name": "newOwner",
          "type": "address"
        }
      ],
      "name": "OwnershipTransferred",
      "type": "event"
    },
    {
      "anonymous": false,
      "inputs": [
        {
          "indexed": false,
          "internalType": "uint256",
          "name": "amount",
          "type": "uint256"
        }
      ],
      "name": "RemoveGold",
      "type": "event"
    },
    {
      "anonymous": false,
      "inputs": [
        {
          "indexed": true,
          "internalType": "address",
          "name": "from",
          "type": "address"
        },
        {
          "indexed": true,
          "internalType": "address",
          "name": "to",
          "type": "address"
        },
        {
          "indexed": false,
          "internalType": "uint256",
          "name": "value",
          "type": "uint256"
        }
      ],
      "name": "Transfer",
      "type": "event"
    },
    {
      "constant": true,
      "inputs": [],
      "name": "INACTIVE_THRESHOLD_DAYS",
      "outputs": [
        {
          "internalType": "uint256",
          "name": "",
          "type": "uint256"
        }
      ],
      "payable": false,
      "stateMutability": "view",
      "type": "function"
    },
    {
      "constant": true,
      "inputs": [],
      "name": "SUPPLY_CAP",
      "outputs": [
        {
          "internalType": "uint256",
          "name": "",
          "type": "uint256"
        }
      ],
      "payable": false,
      "stateMutability": "view",
      "type": "function"
    },
    {
      "constant": true,
      "inputs": [],
      "name": "decimals",
      "outputs": [
        {
          "internalType": "uint8",
          "name": "",
          "type": "uint8"
        }
      ],
      "payable": false,
      "stateMutability": "view",
      "type": "function"
    },
    {
      "constant": true,
      "inputs": [],
      "name": "isOwner",
      "outputs": [
        {
          "internalType": "bool",
          "name": "",
          "type": "bool"
        }
      ],
      "payable": false,
      "stateMutability": "view",
      "type": "function"
    },
    {
      "constant": true,
      "inputs": [],
      "name": "name",
      "outputs": [
        {
          "internalType": "string",
          "name": "",
          "type": "string"
        }
      ],
      "payable": false,
      "stateMutability": "view",
      "type": "function"
    },
    {
      "constant": true,
      "inputs": [],
      "name": "owner",
      "outputs": [
        {
          "internalType": "address",
          "name": "",
          "type": "address"
        }
      ],
      "payable": false,
      "stateMutability": "view",
      "type": "function"
    },
    {
      "constant": false,
      "inputs": [],
      "name": "renounceOwnership",
      "outputs": [],
      "payable": false,
      "stateMutability": "nonpayable",
      "type": "function"
    },
    {
      "constant": true,
      "inputs": [],
      "name": "symbol",
      "outputs": [
        {
          "internalType": "string",
          "name": "",
          "type": "string"
        }
      ],
      "payable": false,
      "stateMutability": "view",
      "type": "function"
    },
    {
      "constant": false,
      "inputs": [
        {
          "internalType": "address",
          "name": "newOwner",
          "type": "address"
        }
      ],
      "name": "transferOwnership",
      "outputs": [],
      "payable": false,
      "stateMutability": "nonpayable",
      "type": "function"
    },
    {
      "constant": false,
      "inputs": [
        {
          "internalType": "address",
          "name": "to",
          "type": "address"
        },
        {
          "internalType": "uint256",
          "name": "value",
          "type": "uint256"
        }
      ],
      "name": "transfer",
      "outputs": [
        {
          "internalType": "bool",
          "name": "",
          "type": "bool"
        }
      ],
      "payable": false,
      "stateMutability": "nonpayable",
      "type": "function"
    },
    {
      "constant": false,
      "inputs": [
        {
          "internalType": "address",
          "name": "spender",
          "type": "address"
        },
        {
          "internalType": "uint256",
          "name": "value",
          "type": "uint256"
        }
      ],
      "name": "approve",
      "outputs": [
        {
          "internalType": "bool",
          "name": "",
          "type": "bool"
        }
      ],
      "payable": false,
      "stateMutability": "nonpayable",
      "type": "function"
    },
    {
      "constant": false,
      "inputs": [
        {
          "internalType": "address",
          "name": "from",
          "type": "address"
        },
        {
          "internalType": "address",
          "name": "to",
          "type": "address"
        },
        {
          "internalType": "uint256",
          "name": "value",
          "type": "uint256"
        }
      ],
      "name": "transferFrom",
      "outputs": [
        {
          "internalType": "bool",
          "name": "",
          "type": "bool"
        }
      ],
      "payable": false,
      "stateMutability": "nonpayable",
      "type": "function"
    },
    {
      "constant": false,
      "inputs": [
        {
          "internalType": "address",
          "name": "spender",
          "type": "address"
        },
        {
          "internalType": "uint256",
          "name": "addedValue",
          "type": "uint256"
        }
      ],
      "name": "increaseAllowance",
      "outputs": [
        {
          "internalType": "bool",
          "name": "",
          "type": "bool"
        }
      ],
      "payable": false,
      "stateMutability": "nonpayable",
      "type": "function"
    },
    {
      "constant": false,
      "inputs": [
        {
          "internalType": "address",
          "name": "spender",
          "type": "address"
        },
        {
          "internalType": "uint256",
          "name": "subtractedValue",
          "type": "uint256"
        }
      ],
      "name": "decreaseAllowance",
      "outputs": [
        {
          "internalType": "bool",
          "name": "",
          "type": "bool"
        }
      ],
      "payable": false,
      "stateMutability": "nonpayable",
      "type": "function"
    },
    {
      "constant": false,
      "inputs": [
        {
          "internalType": "uint256",
          "name": "value",
          "type": "uint256"
        }
      ],
      "name": "addBackedTokens",
      "outputs": [
        {
          "internalType": "bool",
          "name": "",
          "type": "bool"
        }
      ],
      "payable": false,
      "stateMutability": "nonpayable",
      "type": "function"
    },
    {
      "constant": false,
      "inputs": [],
      "name": "payStorageFee",
      "outputs": [
        {
          "internalType": "bool",
          "name": "",
          "type": "bool"
        }
      ],
      "payable": false,
      "stateMutability": "nonpayable",
      "type": "function"
    },
    {
      "constant": false,
      "inputs": [
        {
          "internalType": "address",
          "name": "account",
          "type": "address"
        }
      ],
      "name": "setAccountInactive",
      "outputs": [
        {
          "internalType": "bool",
          "name": "",
          "type": "bool"
        }
      ],
      "payable": false,
      "stateMutability": "nonpayable",
      "type": "function"
    },
    {
      "constant": false,
      "inputs": [
        {
          "internalType": "address",
          "name": "account",
          "type": "address"
        }
      ],
      "name": "forcePayFees",
      "outputs": [
        {
          "internalType": "bool",
          "name": "",
          "type": "bool"
        }
      ],
      "payable": false,
      "stateMutability": "nonpayable",
      "type": "function"
    },
    {
      "constant": false,
      "inputs": [
        {
          "internalType": "address",
          "name": "enforcer",
          "type": "address"
        }
      ],
      "name": "setFeeEnforcer",
      "outputs": [
        {
          "internalType": "bool",
          "name": "",
          "type": "bool"
        }
      ],
      "payable": false,
      "stateMutability": "nonpayable",
      "type": "function"
    },
    {
      "constant": false,
      "inputs": [
        {
          "internalType": "address",
          "name": "newFeeAddress",
          "type": "address"
        }
      ],
      "name": "setFeeAddress",
      "outputs": [
        {
          "internalType": "bool",
          "name": "",
          "type": "bool"
        }
      ],
      "payable": false,
      "stateMutability": "nonpayable",
      "type": "function"
    },
    {
      "constant": false,
      "inputs": [
        {
          "internalType": "address",
          "name": "newRedeemAddress",
          "type": "address"
        }
      ],
      "name": "setRedeemAddress",
      "outputs": [
        {
          "internalType": "bool",
          "name": "",
          "type": "bool"
        }
      ],
      "payable": false,
      "stateMutability": "nonpayable",
      "type": "function"
    },
    {
      "constant": false,
      "inputs": [
        {
          "internalType": "address",
          "name": "newBackedAddress",
          "type": "address"
        }
      ],
      "name": "setBackedAddress",
      "outputs": [
        {
          "internalType": "bool",
          "name": "",
          "type": "bool"
        }
      ],
      "payable": false,
      "stateMutability": "nonpayable",
      "type": "function"
    },
    {
      "constant": false,
      "inputs": [
        {
          "internalType": "address",
          "name": "newUnbackedAddress",
          "type": "address"
        }
      ],
      "name": "setUnbackedAddress",
      "outputs": [
        {
          "internalType": "bool",
          "name": "",
          "type": "bool"
        }
      ],
      "payable": false,
      "stateMutability": "nonpayable",
      "type": "function"
    },
    {
      "constant": false,
      "inputs": [
        {
          "internalType": "address",
          "name": "oracleAddress",
          "type": "address"
        }
      ],
      "name": "setOracleAddress",
      "outputs": [
        {
          "internalType": "bool",
          "name": "",
          "type": "bool"
        }
      ],
      "payable": false,
      "stateMutability": "nonpayable",
      "type": "function"
    },
    {
      "constant": false,
      "inputs": [
        {
          "internalType": "uint256",
          "name": "daysGracePeriod",
          "type": "uint256"
        }
      ],
      "name": "setStorageFeeGracePeriodDays",
      "outputs": [],
      "payable": false,
      "stateMutability": "nonpayable",
      "type": "function"
    },
    {
      "constant": false,
      "inputs": [
        {
          "internalType": "address",
          "name": "account",
          "type": "address"
        }
      ],
      "name": "setTransferFeeExempt",
      "outputs": [],
      "payable": false,
      "stateMutability": "nonpayable",
      "type": "function"
    },
    {
      "constant": false,
      "inputs": [
        {
          "internalType": "address",
          "name": "account",
          "type": "address"
        }
      ],
      "name": "setStorageFeeExempt",
      "outputs": [],
      "payable": false,
      "stateMutability": "nonpayable",
      "type": "function"
    },
    {
      "constant": false,
      "inputs": [
        {
          "internalType": "address",
          "name": "account",
          "type": "address"
        }
      ],
      "name": "unsetFeeExempt",
      "outputs": [],
      "payable": false,
      "stateMutability": "nonpayable",
      "type": "function"
    },
    {
      "constant": false,
      "inputs": [
        {
          "internalType": "uint256",
          "name": "fee",
          "type": "uint256"
        }
      ],
      "name": "setTransferFeeBasisPoints",
      "outputs": [],
      "payable": false,
      "stateMutability": "nonpayable",
      "type": "function"
    },
    {
      "constant": true,
      "inputs": [
        {
          "internalType": "address",
          "name": "owner",
          "type": "address"
        }
      ],
      "name": "balanceOf",
      "outputs": [
        {
          "internalType": "uint256",
          "name": "",
          "type": "uint256"
        }
      ],
      "payable": false,
      "stateMutability": "view",
      "type": "function"
    },
    {
      "constant": true,
      "inputs": [
        {
          "internalType": "address",
          "name": "owner",
          "type": "address"
        }
      ],
      "name": "balanceOfNoFees",
      "outputs": [
        {
          "internalType": "uint256",
          "name": "",
          "type": "uint256"
        }
      ],
      "payable": false,
      "stateMutability": "view",
      "type": "function"
    },
    {
      "constant": true,
      "inputs": [],
      "name": "totalSupply",
      "outputs": [
        {
          "internalType": "uint256",
          "name": "",
          "type": "uint256"
        }
      ],
      "payable": false,
      "stateMutability": "view",
      "type": "function"
    },
    {
      "constant": true,
      "inputs": [
        {
          "internalType": "address",
          "name": "owner",
          "type": "address"
        },
        {
          "internalType": "address",
          "name": "spender",
          "type": "address"
        }
      ],
      "name": "allowance",
      "outputs": [
        {
          "internalType": "uint256",
          "name": "",
          "type": "uint256"
        }
      ],
      "payable": false,
      "stateMutability": "view",
      "type": "function"
    },
    {
      "constant": true,
      "inputs": [],
      "name": "feeEnforcer",
      "outputs": [
        {
          "internalType": "address",
          "name": "",
          "type": "address"
        }
      ],
      "payable": false,
      "stateMutability": "view",
      "type": "function"
    },
    {
      "constant": true,
      "inputs": [],
      "name": "feeAddress",
      "outputs": [
        {
          "internalType": "address",
          "name": "",
          "type": "address"
        }
      ],
      "payable": false,
      "stateMutability": "view",
      "type": "function"
    },
    {
      "constant": true,
      "inputs": [],
      "name": "redeemAddress",
      "outputs": [
        {
          "internalType": "address",
          "name": "",
          "type": "address"
        }
      ],
      "payable": false,
      "stateMutability": "view",
      "type": "function"
    },
    {
      "constant": true,
      "inputs": [],
      "name": "backedTreasury",
      "outputs": [
        {
          "internalType": "address",
          "name": "",
          "type": "address"
        }
      ],
      "payable": false,
      "stateMutability": "view",
      "type": "function"
    },
    {
      "constant": true,
      "inputs": [],
      "name": "unbackedTreasury",
      "outputs": [
        {
          "internalType": "address",
          "name": "",
          "type": "address"
        }
      ],
      "payable": false,
      "stateMutability": "view",
      "type": "function"
    },
    {
      "constant": true,
      "inputs": [],
      "name": "oracleAddress",
      "outputs": [
        {
          "internalType": "address",
          "name": "",
          "type": "address"
        }
      ],
      "payable": false,
      "stateMutability": "view",
      "type": "function"
    },
    {
      "constant": true,
      "inputs": [],
      "name": "storageFeeGracePeriodDays",
      "outputs": [
        {
          "internalType": "uint256",
          "name": "",
          "type": "uint256"
        }
      ],
      "payable": false,
      "stateMutability": "view",
      "type": "function"
    },
    {
      "constant": true,
      "inputs": [],
      "name": "transferFeeBasisPoints",
      "outputs": [
        {
          "internalType": "uint256",
          "name": "",
          "type": "uint256"
        }
      ],
      "payable": false,
      "stateMutability": "view",
      "type": "function"
    },
    {
      "constant": true,
      "inputs": [
        {
          "internalType": "address",
          "name": "from",
          "type": "address"
        },
        {
          "internalType": "address",
          "name": "to",
          "type": "address"
        },
        {
          "internalType": "uint256",
          "name": "value",
          "type": "uint256"
        }
      ],
      "name": "simulateTransfer",
      "outputs": [
        {
          "internalType": "uint256[5]",
          "name": "",
          "type": "uint256[5]"
        }
      ],
      "payable": false,
      "stateMutability": "view",
      "type": "function"
    },
    {
      "constant": false,
      "inputs": [
        {
          "internalType": "address",
          "name": "account",
          "type": "address"
        }
      ],
      "name": "setFeeExempt",
      "outputs": [],
      "payable": false,
      "stateMutability": "nonpayable",
      "type": "function"
    },
    {
      "constant": true,
      "inputs": [
        {
          "internalType": "address",
          "name": "account",
          "type": "address"
        }
      ],
      "name": "isStorageFeeExempt",
      "outputs": [
        {
          "internalType": "bool",
          "name": "",
          "type": "bool"
        }
      ],
      "payable": false,
      "stateMutability": "view",
      "type": "function"
    },
    {
      "constant": true,
      "inputs": [
        {
          "internalType": "address",
          "name": "account",
          "type": "address"
        }
      ],
      "name": "isTransferFeeExempt",
      "outputs": [
        {
          "internalType": "bool",
          "name": "",
          "type": "bool"
        }
      ],
      "payable": false,
      "stateMutability": "view",
      "type": "function"
    },
    {
      "constant": true,
      "inputs": [
        {
          "internalType": "address",
          "name": "account",
          "type": "address"
        }
      ],
      "name": "isAllFeeExempt",
      "outputs": [
        {
          "internalType": "bool",
          "name": "",
          "type": "bool"
        }
      ],
      "payable": false,
      "stateMutability": "view",
      "type": "function"
    },
    {
      "constant": true,
      "inputs": [
        {
          "internalType": "address",
          "name": "account",
          "type": "address"
        }
      ],
      "name": "isInactive",
      "outputs": [
        {
          "internalType": "bool",
          "name": "",
          "type": "bool"
        }
      ],
      "payable": false,
      "stateMutability": "view",
      "type": "function"
    },
    {
      "constant": true,
      "inputs": [],
      "name": "totalCirculation",
      "outputs": [
        {
          "internalType": "uint256",
          "name": "",
          "type": "uint256"
        }
      ],
      "payable": false,
      "stateMutability": "view",
      "type": "function"
    },
    {
      "constant": true,
      "inputs": [
        {
          "internalType": "address",
          "name": "account",
          "type": "address"
        }
      ],
      "name": "daysSincePaidStorageFee",
      "outputs": [
        {
          "internalType": "uint256",
          "name": "",
          "type": "uint256"
        }
      ],
      "payable": false,
      "stateMutability": "view",
      "type": "function"
    },
    {
      "constant": true,
      "inputs": [
        {
          "internalType": "address",
          "name": "account",
          "type": "address"
        }
      ],
      "name": "daysSinceActivity",
      "outputs": [
        {
          "internalType": "uint256",
          "name": "",
          "type": "uint256"
        }
      ],
      "payable": false,
      "stateMutability": "view",
      "type": "function"
    },
    {
      "constant": true,
      "inputs": [
        {
          "internalType": "address",
          "name": "account",
          "type": "address"
        }
      ],
      "name": "calcOwedFees",
      "outputs": [
        {
          "internalType": "uint256",
          "name": "",
          "type": "uint256"
        }
      ],
      "payable": false,
      "stateMutability": "view",
      "type": "function"
    },
    {
      "constant": true,
      "inputs": [
        {
          "internalType": "address",
          "name": "account",
          "type": "address"
        }
      ],
      "name": "calcStorageFee",
      "outputs": [
        {
          "internalType": "uint256",
          "name": "",
          "type": "uint256"
        }
      ],
      "payable": false,
      "stateMutability": "view",
      "type": "function"
    },
    {
      "constant": true,
      "inputs": [
        {
          "internalType": "address",
          "name": "account",
          "type": "address"
        }
      ],
      "name": "calcInactiveFee",
      "outputs": [
        {
          "internalType": "uint256",
          "name": "",
          "type": "uint256"
        }
      ],
      "payable": false,
      "stateMutability": "view",
      "type": "function"
    },
    {
      "constant": true,
      "inputs": [
        {
          "internalType": "address",
          "name": "account",
          "type": "address"
        }
      ],
      "name": "calcSendAllBalance",
      "outputs": [
        {
          "internalType": "uint256",
          "name": "",
          "type": "uint256"
        }
      ],
      "payable": false,
      "stateMutability": "view",
      "type": "function"
    },
    {
      "constant": true,
      "inputs": [
        {
          "internalType": "address",
          "name": "account",
          "type": "address"
        },
        {
          "internalType": "uint256",
          "name": "value",
          "type": "uint256"
        }
      ],
      "name": "calcTransferFee",
      "outputs": [
        {
          "internalType": "uint256",
          "name": "",
          "type": "uint256"
        }
      ],
      "payable": false,
      "stateMutability": "view",
      "type": "function"
    },
    {
      "constant": true,
      "inputs": [
        {
          "internalType": "uint256",
          "name": "balance",
          "type": "uint256"
        },
        {
          "internalType": "uint256",
          "name": "daysSinceStoragePaid",
          "type": "uint256"
        }
      ],
      "name": "storageFee",
      "outputs": [
        {
          "internalType": "uint256",
          "name": "",
          "type": "uint256"
        }
      ],
      "payable": false,
      "stateMutability": "pure",
      "type": "function"
    }
  ],
  "bytecode": "0x6080604052600a60015560006012553480156200001b57600080fd5b506040516200366c3803806200366c833981810160405260a08110156200004157600080fd5b50805160208201516040808401516060850151608090950151600080546001600160a01b031916331780825593519596949592949391926001600160a01b0392909216917f8be0079c531659141344cd1fd0a4f28419497f9722a3daafe3b4186f6b6457e0908290a3600e80546001600160a01b038088166001600160a01b031992831617909255600d8054878416908316179055600c80548684169083161790556010805492851692909116919091179055620001076001600160e01b03620001d316565b601180546001600160a01b03199081166001600160a01b0393841617909155600f8054909116838316179055600c54620001429116620001e2565b60105462000162906001600160a01b03166001600160e01b03620001e216565b600d5462000182906001600160a01b03166001600160e01b03620001e216565b600e54620001a2906001600160a01b03166001600160e01b03620001e216565b620001c8620001b96001600160e01b03620001d316565b6001600160e01b03620001e216565b505050505062000294565b6000546001600160a01b031690565b620001f56001600160e01b036200028316565b62000247576040805162461bcd60e51b815260206004820181905260248201527f4f776e61626c653a2063616c6c6572206973206e6f7420746865206f776e6572604482015290519081900360640190fd5b6001600160a01b031660009081526008602090815260408083208054600160ff1991821681179092556009909352922080549091169091179055565b6000546001600160a01b0316331490565b6133c880620002a46000396000f3fe608060405234801561001057600080fd5b50600436106103785760003560e01c80636a5de0f3116101d357806395d89b4111610104578063dd62ed3e116100a2578063edd496fa1161007c578063edd496fa14610a48578063f2fde38b14610a6e578063fc2edf5a14610a94578063fd1c1ae014610a9c57610378565b8063dd62ed3e146109ce578063e3461119146109fc578063e8337a2714610a2257610378565b8063a89ae4ba116100de578063a89ae4ba14610957578063a9059cbb1461095f578063cbabd8d81461098b578063da403903146109b157610378565b806395d89b41146108fd578063a457c2d714610905578063a47913151461093157610378565b80637650e683116101715780638705fcd41161014b5780638705fcd4146108bf5780638da5cb5b146108e55780638f32d59b146108ed5780638f9e4cf2146108f557610378565b80637650e683146108745780637c37080e1461089a57806380a78ac7146108a257610378565b806370a08231116101ad57806370a0823114610818578063715018a61461083e57806372cc14fa14610846578063749796a51461084e57610378565b80636a5de0f3146107c25780636d9c8cd8146107e85780636f9423f6146107f057610378565b80632f648c1a116102ad5780634d1e090a1161024b578063549b472911610225578063549b4729146107485780635aa349211461076e5780635dcf8d2b146107945780635fcbc8961461079c57610378565b80634d1e090a146106d95780634fcf262c146106fc578063536f21201461072257610378565b8063395093511161028757806339509351146106535780633c6d47741461067f57806341275358146106ab5780634c69c00f146106b357610378565b80632f648c1a146105e9578063313ce5671461060f57806335dd44031461062d57610378565b80631a222ac71161031a57806329c25d39116102f457806329c25d39146105275780632a5332391461054d5780632ae96a80146105555780632ec3fc8e146105c357610378565b80631a222ac7146104a757806323b872dd146104cd578063265b51501461050357610378565b80630c7a971e116103565780630c7a971e146104575780630cfccc831461048f57806318160ddd14610497578063183767da1461049f57610378565b806306fdde031461037d578063095ea7b3146103fa57806309d6ec0a1461043a575b600080fd5b610385610ac2565b6040805160208082528351818301528351919283929083019185019080838360005b838110156103bf5781810151838201526020016103a7565b50505050905090810190601f1680156103ec5780820380516001836020036101000a031916815260200191505b509250505060405180910390f35b6104266004803603604081101561041057600080fd5b506001600160a01b038135169060200135610ae8565b604080519115158252519081900360200190f35b6104266004803603602081101561045057600080fd5b5035610b08565b61047d6004803603602081101561046d57600080fd5b50356001600160a01b0316610cd0565b60408051918252519081900360200190f35b61047d610e04565b61047d610e10565b61047d610e16565b61047d600480360360208110156104bd57600080fd5b50356001600160a01b0316610e1c565b610426600480360360608110156104e357600080fd5b506001600160a01b03813581169160208101359091169060400135610edf565b61050b610f3f565b604080516001600160a01b039092168252519081900360200190f35b61047d6004803603602081101561053d57600080fd5b50356001600160a01b0316610f4e565b61047d610fa6565b61058b6004803603606081101561056b57600080fd5b506001600160a01b03813581169160208101359091169060400135610fac565b604051808260a080838360005b838110156105b0578181015183820152602001610598565b5050505090500191505060405180910390f35b610426600480360360208110156105d957600080fd5b50356001600160a01b0316610fc7565b610426600480360360208110156105ff57600080fd5b50356001600160a01b031661112d565b610617611209565b6040805160ff9092168252519081900360200190f35b61047d6004803603602081101561064357600080fd5b50356001600160a01b031661120e565b6104266004803603604081101561066957600080fd5b506001600160a01b03813516906020013561127a565b61047d6004803603604081101561069557600080fd5b506001600160a01b0381351690602001356112c0565b61050b6112fa565b610426600480360360208110156106c957600080fd5b50356001600160a01b0316611309565b61047d600480360360408110156106ef57600080fd5b508035906020013561138a565b61047d6004803603602081101561071257600080fd5b50356001600160a01b03166113d1565b6104266004803603602081101561073857600080fd5b50356001600160a01b03166113ec565b6104266004803603602081101561075e57600080fd5b50356001600160a01b0316611473565b61047d6004803603602081101561078457600080fd5b50356001600160a01b0316611491565b61047d6114a8565b610426600480360360208110156107b257600080fd5b50356001600160a01b03166114da565b610426600480360360208110156107d857600080fd5b50356001600160a01b03166114f7565b61050b61155e565b6108166004803603602081101561080657600080fd5b50356001600160a01b031661156d565b005b61047d6004803603602081101561082e57600080fd5b50356001600160a01b03166115d8565b6108166115e3565b61050b611674565b6108166004803603602081101561086457600080fd5b50356001600160a01b0316611683565b6104266004803603602081101561088a57600080fd5b50356001600160a01b0316611706565b61047d611874565b610816600480360360208110156108b857600080fd5b503561187a565b610426600480360360208110156108d557600080fd5b50356001600160a01b03166118c6565b61050b61199a565b6104266119a9565b6104266119ba565b6103856119d6565b6104266004803603604081101561091b57600080fd5b506001600160a01b0381351690602001356119f5565b6104266004803603602081101561094757600080fd5b50356001600160a01b0316611a3b565b61050b611a7d565b6104266004803603604081101561097557600080fd5b506001600160a01b038135169060200135611a8c565b610816600480360360208110156109a157600080fd5b50356001600160a01b0316611ab9565b610816600480360360208110156109c757600080fd5b5035611b36565b61047d600480360360408110156109e457600080fd5b506001600160a01b0381358116916020013516611bc2565b61042660048036036020811015610a1257600080fd5b50356001600160a01b0316611bed565b61042660048036036020811015610a3857600080fd5b50356001600160a01b0316611cc1565b61081660048036036020811015610a5e57600080fd5b50356001600160a01b0316611cdf565b61081660048036036020811015610a8457600080fd5b50356001600160a01b0316611d4a565b61050b611d9d565b61047d60048036036020811015610ab257600080fd5b50356001600160a01b0316611dac565b6040518060400160405280600a81526020016910d050d2114811dbdb1960b21b81525081565b6000610af333611e9a565b610afe338484611f34565b5060015b92915050565b6000610b126119a9565b610b51576040805162461bcd60e51b8152602060048201819052602482015260008051602061326c833981519152604482015290519081900360640190fd5b600e546001600160a01b03908116600090815260026020908152604080832054600f5482516337bc67d560e21b815292519195169263def19f549260048082019391829003018186803b158015610ba757600080fd5b505afa158015610bbb573d6000803e3d6000fd5b505050506040513d6020811015610bd157600080fd5b50519050610bed84610be16114a8565b9063ffffffff611fbc16565b811015610c2b5760405162461bcd60e51b81526004018080602001828103825260428152602001806131476042913960600191505060405180910390fd5b818411610c5457600e54600d54610c4f916001600160a01b03908116911686612016565b610c91565b8115610c7757600e54600d54610c77916001600160a01b03908116911684612016565b610c8f610c8a858463ffffffff61236516565b6123c2565b505b6040805185815290517f09b6db8121b98e8afd720f8845773ef4340dfe3c6a1eadc5e068ff266357e8079181900360200190a16001925050505b919050565b60006001600160a01b038216610ce557600080fd5b6000610d18610cf384611491565b6001600160a01b0385166000908152600260205260409020549063ffffffff61236516565b905060015460001480610d2f5750610d2f83611473565b15610d3b579050610ccb565b60018111610d4d576000915050610ccb565b6000610d7a610d6961271060015461251e90919063ffffffff16565b6305f5e1009063ffffffff611fbc16565b90506000610da76001610be184610d9b876305f5e10063ffffffff61251e16565b9063ffffffff61257716565b90506000610dc6612710610d9b6001548561251e90919063ffffffff16565b905083610dd9838363ffffffff611fbc16565b1115610dfb57610df082600163ffffffff61236516565b945050505050610ccb565b50949350505050565b670b499bdc6499da0081565b600b5490565b60015490565b6001600160a01b03811660009081526002602052604081205481610e3f84610f4e565b9050610e4a846114da565b15610e8b576001600160a01b038416600090815260076020908152604080832054600690925290912054610e829184918491906125e1565b92505050610ccb565b610e948461264d565b15610ed5576000610eb4610ea786611dac565b849063ffffffff61236516565b9050610ecb8183610ec4846126e4565b60006125e1565b9350505050610ccb565b5060009392505050565b6000610eea33611e9a565b610ef5848484612016565b6001600160a01b038416600090815260036020908152604080832033808552925290912054610f35918691610f30908663ffffffff61236516565b611f34565b5060019392505050565b6010546001600160a01b031690565b6001600160a01b038116600090815260056020526040812054610f7357506000610ccb565b6001600160a01b038216600090815260056020526040902054610b02906201518090610d9b90429063ffffffff61236516565b60125490565b610fb4612f89565b610fbf84848461271f565b949350505050565b6011546000906001600160a01b03163314610fe157600080fd5b6001600160a01b038216610ff457600080fd5b6001600160a01b0382166000908152600260205260409020546110485760405162461bcd60e51b81526004018080602001828103825260308152602001806130ec6030913960400191505060405180910390fd5b611051826114da565b156110765760006110618361282f565b90506000811161107057600080fd5b50610ccb565b61107f8261264d565b156110925761108d82612981565b610ccb565b61016d61109e8361120e565b10156110db5760405162461bcd60e51b81526004018080602001828103825260398152602001806130446039913960400191505060405180910390fd5b60006110e683612b80565b9050600081116111275760405162461bcd60e51b81526004018080602001828103825260308152602001806131896030913960400191505060405180910390fd5b50919050565b60006111376119a9565b611176576040805162461bcd60e51b8152602060048201819052602482015260008051602061326c833981519152604482015290519081900360640190fd5b6001600160a01b03821661118957600080fd5b600e546001600160a01b03838116911614156111d65760405162461bcd60e51b815260040180806020018281038252602e8152602001806131b9602e913960400191505060405180910390fd5b600d80546001600160a01b0319166001600160a01b0384811691909117918290556112019116611683565b506001919050565b600881565b6000611219826114da565b8061123a57506001600160a01b038216600090815260046020526040902054155b1561124757506000610ccb565b6001600160a01b038216600090815260046020526040902054610b02906201518090610d9b90429063ffffffff61236516565b600061128533611e9a565b3360008181526003602090815260408083206001600160a01b0388168452909152902054610afe91908590610f30908663ffffffff611fbc16565b60006112cb83611473565b156112d857506000610b02565b6112f3612710610d9b6001548561251e90919063ffffffff16565b9392505050565b600c546001600160a01b031690565b60006113136119a9565b611352576040805162461bcd60e51b8152602060048201819052602482015260008051602061326c833981519152604482015290519081900360640190fd5b6001600160a01b03821661136557600080fd5b50600f80546001600160a01b0383166001600160a01b03199091161790556001919050565b6000806113be6409502f9000610d9b61016d81876113b28a6305f5e10063ffffffff61251e16565b9063ffffffff61251e16565b9050838111156112f35783915050610b02565b6001600160a01b031660009081526002602052604090205490565b60006113f66119a9565b611435576040805162461bcd60e51b8152602060048201819052602482015260008051602061326c833981519152604482015290519081900360640190fd5b6001600160a01b03821661144857600080fd5b601180546001600160a01b0319166001600160a01b0384811691909117918290556112019116611683565b6001600160a01b031660009081526008602052604090205460ff1690565b6000610b0261149f83610e1c565b610be184611dac565b600e546001600160a01b0316600090815260026020526040812054600b546114d59163ffffffff61236516565b905090565b6001600160a01b0316600090815260076020526040902054151590565b6011546000906001600160a01b0316331461151157600080fd5b61151a8261264d565b6115555760405162461bcd60e51b815260040180806020018281038252602a81526020018061332d602a913960400191505060405180910390fd5b610ccb82612981565b600d546001600160a01b031690565b6115756119a9565b6115b4576040805162461bcd60e51b8152602060048201819052602482015260008051602061326c833981519152604482015290519081900360640190fd5b6001600160a01b03166000908152600860205260409020805460ff19166001179055565b6000610b0282610cd0565b6115eb6119a9565b61162a576040805162461bcd60e51b8152602060048201819052602482015260008051602061326c833981519152604482015290519081900360640190fd5b600080546040516001600160a01b03909116907f8be0079c531659141344cd1fd0a4f28419497f9722a3daafe3b4186f6b6457e0908390a3600080546001600160a01b0319169055565b600e546001600160a01b031690565b61168b6119a9565b6116ca576040805162461bcd60e51b8152602060048201819052602482015260008051602061326c833981519152604482015290519081900360640190fd5b6001600160a01b031660009081526008602090815260408083208054600160ff1991821681179092556009909352922080549091169091179055565b60006117106119a9565b61174f576040805162461bcd60e51b8152602060048201819052602482015260008051602061326c833981519152604482015290519081900360640190fd5b6001600160a01b03821661176257600080fd5b600d546001600160a01b03838116911614156117af5760405162461bcd60e51b815260040180806020018281038252602f8152602001806132fe602f913960400191505060405180910390fd5b600c546001600160a01b03838116911614156117fc5760405162461bcd60e51b815260040180806020018281038252602c815260200180612fa8602c913960400191505060405180910390fd5b6010546001600160a01b03838116911614156118495760405162461bcd60e51b815260040180806020018281038252602c815260200180612fa8602c913960400191505060405180910390fd5b600e80546001600160a01b0319166001600160a01b0384811691909117918290556112019116611683565b61044781565b6118826119a9565b6118c1576040805162461bcd60e51b8152602060048201819052602482015260008051602061326c833981519152604482015290519081900360640190fd5b601255565b60006118d06119a9565b61190f576040805162461bcd60e51b8152602060048201819052602482015260008051602061326c833981519152604482015290519081900360640190fd5b6001600160a01b03821661192257600080fd5b600e546001600160a01b038381169116141561196f5760405162461bcd60e51b815260040180806020018281038252602b81526020018061311c602b913960400191505060405180910390fd5b600c80546001600160a01b0319166001600160a01b0384811691909117918290556112019116611683565b6000546001600160a01b031690565b6000546001600160a01b0316331490565b60006119c533611e9a565b6119ce33612b80565b506001905090565b6040518060400160405280600381526020016210d1d560ea1b81525081565b6000611a0033611e9a565b3360008181526003602090815260408083206001600160a01b0388168452909152902054610afe91908590610f30908663ffffffff61236516565b6001600160a01b03811660009081526008602052604081205460ff168015610b025750506001600160a01b031660009081526009602052604090205460ff1690565b600f546001600160a01b031690565b6000611a9733611e9a565b611aa08361264d565b15611aae57611aae83612981565b610afe338484612016565b611ac16119a9565b611b00576040805162461bcd60e51b8152602060048201819052602482015260008051602061326c833981519152604482015290519081900360640190fd5b6001600160a01b03166000908152600860209081526040808320805460ff19908116909155600990925290912080549091169055565b611b3e6119a9565b611b7d576040805162461bcd60e51b8152602060048201819052602482015260008051602061326c833981519152604482015290519081900360640190fd5b600a811115611bbd5760405162461bcd60e51b815260040180806020018281038252603d815260200180613357603d913960400191505060405180910390fd5b600155565b6001600160a01b03918216600090815260036020908152604080832093909416825291909152205490565b6000611bf76119a9565b611c36576040805162461bcd60e51b8152602060048201819052602482015260008051602061326c833981519152604482015290519081900360640190fd5b6001600160a01b038216611c4957600080fd5b600e546001600160a01b0383811691161415611c965760405162461bcd60e51b815260040180806020018281038252602e81526020018061323e602e913960400191505060405180910390fd5b601080546001600160a01b0319166001600160a01b0384811691909117918290556112019116611683565b6001600160a01b031660009081526009602052604090205460ff1690565b611ce76119a9565b611d26576040805162461bcd60e51b8152602060048201819052602482015260008051602061326c833981519152604482015290519081900360640190fd5b6001600160a01b03166000908152600960205260409020805460ff19166001179055565b611d526119a9565b611d91576040805162461bcd60e51b8152602060048201819052602482015260008051602061326c833981519152604482015290519081900360640190fd5b611d9a81612c6f565b50565b6011546001600160a01b031690565b6001600160a01b038116600090815260026020526040812054611dce836114da565b80611ddd5750611ddd83611cc1565b80611de6575080155b15611df5576000915050610ccb565b6000611e008461120e565b90506000611e0d85610f4e565b6001600160a01b0386166000908152600a60205260409020549091508015611e535780831115611e4e57611e47838263ffffffff61236516565b9250611e53565b600092505b82611e65576000945050505050610ccb565b6104478210611e8657611e83610ea78361044763ffffffff61236516565b92505b611e90848461138a565b9695505050505050565b611ea38161264d565b15611eb157611eb181612981565b611eba816114da565b15611f1857611ec88161282f565b506001600160a01b03811660008181526007602090815260408083208390556004909152808220429055517f96cc51e6ab9b6970cc6fc055179c755849347faa4f703098b52724f2a76ad9569190a25b6001600160a01b03166000908152600560205260409020429055565b6001600160a01b038216611f4757600080fd5b6001600160a01b038316611f5a57600080fd5b6001600160a01b03808416600081815260036020908152604080832094871680845294825291829020859055815185815291517f8c5be1e5ebec7d5bd14f71427d1e84f3dd0314c0f7b2291e5b200ac8c7c3b9259281900390910190a3505050565b6000828201838110156112f3576040805162461bcd60e51b815260206004820152601b60248201527f536166654d6174683a206164646974696f6e206f766572666c6f770000000000604482015290519081900360640190fd5b6120208284612d0f565b600061202b84611dac565b6001600160a01b03808616600081815260026020526040808220549388168083529082205494955090938593929091146121315761207961206c89886112c0565b849063ffffffff611fbc16565b925061208487611dac565b93506120a68361209a848963ffffffff61236516565b9063ffffffff61236516565b6001600160a01b0389166000908152600260205260409020556120d38461209a838963ffffffff611fbc16565b6001600160a01b0380891660009081526002602052604080822093909355600c5490911681522054612111908590610be1908663ffffffff611fbc16565b600c546001600160a01b0316600090815260026020526040902055612195565b612141828663ffffffff61236516565b6001600160a01b03808a1660009081526002602052604080822093909355600c5490911681522054612179908663ffffffff611fbc16565b600c546001600160a01b03166000908152600260205260409020555b866001600160a01b0316886001600160a01b03166000805160206132de833981519152886040518082815260200191505060405180910390a3821561223257600c546040805185815290516001600160a01b03928316928b16916000805160206132de833981519152919081900360200190a38415612232576001600160a01b038816600090815260046020526040902042905561223288612f51565b6001600160a01b038716600090815260046020526040902054612287576012546001600160a01b0388166000908152600a60209081526040808320939093556005815282822042908190556004909152919020555b83156122ea57600c546040805186815290516001600160a01b03928316928a16916000805160206132de833981519152919081900360200190a36001600160a01b03871660009081526004602052604090204290556122e587612f51565b612311565b62023a50811015612311576001600160a01b03871660009081526004602052604090204290555b600e546001600160a01b038881169116141561235b576040805187815290517f19b4cf73e928f35f5b561a793ad1648ee8ffd717737f5a605419936c8c5a22369181900360200190a15b5050505050505050565b6000828211156123bc576040805162461bcd60e51b815260206004820152601e60248201527f536166654d6174683a207375627472616374696f6e206f766572666c6f770000604482015290519081900360640190fd5b50900390565b600b54600090670b499bdc6499da00906123e2908463ffffffff611fbc16565b1115612435576040805162461bcd60e51b815260206004820152601c60248201527f43616c6c20776f756c642065786365656420737570706c792063617000000000604482015290519081900360640190fd5b600e546001600160a01b03166000908152600260205260409020541561248c5760405162461bcd60e51b815260040180806020018281038252602681526020018061328c6026913960400191505060405180910390fd5b600b5461249f908363ffffffff611fbc16565b600b55600d546001600160a01b03166000908152600260205260409020546124cd908363ffffffff611fbc16565b600d80546001600160a01b0390811660009081526002602090815260408083209590955592548451878152945192169390926000805160206132de83398151915292918290030190a3506001919050565b60008261252d57506000610b02565b8282028284828161253a57fe5b04146112f35760405162461bcd60e51b815260040180806020018281038252602181526020018061321d6021913960400191505060405180910390fd5b60008082116125cd576040805162461bcd60e51b815260206004820152601a60248201527f536166654d6174683a206469766973696f6e206279207a65726f000000000000604482015290519081900360640190fd5b60008284816125d857fe5b04949350505050565b6000806125f68561044763ffffffff61236516565b9050600061261e8461209a6305f5e100610d9b61016d81886113b28d8663ffffffff61251e16565b90508681118061263e575060c861263b888363ffffffff61236516565b11155b15611e90578692505050610fbf565b60006001600160a01b0382161580159061267e57506001600160a01b03821660009081526002602052604090205415155b8015612694575061044761269183610f4e565b10155b80156126a657506126a4826114da565b155b80156126b857506126b682611a3b565b155b80156126cf575060006126cd610cf384611dac565b115b156126dc57506001610ccb565b506000919050565b6000806127046404a817c800610d9b856305f5e10063ffffffff61251e16565b90506305f5e100811015610b0257506305f5e1009050610ccb565b612727612f89565b61272f612f89565b61273885611491565b815260006020820181905260408201526001600160a01b03848116908616146127f15761276484611491565b602082015261277385846112c0565b604080830182905282516001600160a01b0388166000908152600260205291909120546127ad929161209a9182908863ffffffff61236516565b60608201526020808201516001600160a01b038616600090815260029092526040909120546127e7919061209a908663ffffffff611fbc16565b6080820152610fbf565b80516001600160a01b03861660009081526002602052604090205461281b9163ffffffff61236516565b606082018190526080820152949350505050565b6001600160a01b03811660009081526002602052604081205481906128819061285785610f4e565b6001600160a01b0386166000908152600760209081526040808320546006909252909120546125e1565b905080612892576000915050610ccb565b6001600160a01b0383166000908152600260205260409020546128bb908263ffffffff61236516565b6001600160a01b0380851660009081526002602052604080822093909355600c54909116815220546128f3908263ffffffff611fbc16565b600c546001600160a01b03908116600090815260026020908152604080832094909455918616815260069091522054612932908263ffffffff611fbc16565b6001600160a01b0380851660008181526006602090815260409182902094909455600c548151868152915193169391926000805160206132de833981519152929181900390910190a392915050565b600061298c82611dac565b6001600160a01b038316600090815260026020526040812054919250906129b9908363ffffffff61236516565b9050600081116129c557fe5b6129ce816126e4565b6001600160a01b0384166000818152600760209081526040918290208490558151938452905191927f481010afe95c4aad3901e4d3948ca845e8772b11b72f77bf2dd74a9940e21a21929081900390910190a26000612a4f82612a3086610f4e565b6001600160a01b038716600090815260076020526040812054906125e1565b90506000612a63848363ffffffff611fbc16565b6001600160a01b038616600090815260026020526040902054909150612a8f908263ffffffff61236516565b6001600160a01b0380871660009081526002602052604080822093909355600c5490911681522054612ac7908263ffffffff611fbc16565b600c546001600160a01b03908116600090815260026020908152604080832094909455918816815260069091522054612b06908363ffffffff611fbc16565b6001600160a01b0380871660008181526006602090815260409182902094909455600c548151868152915193169391926000805160206132de833981519152929181900390910190a38315612b79576001600160a01b0385166000908152600460205260409020429055612b7985612f51565b5050505050565b600080612b8c83611dac565b905080612b9d576000915050610ccb565b6001600160a01b038316600090815260026020526040902054612bc6908263ffffffff61236516565b6001600160a01b0380851660009081526002602052604080822093909355600c5490911681522054612bfe908263ffffffff611fbc16565b600c80546001600160a01b039081166000908152600260209081526040918290209490945591548251858152925190821693918716926000805160206132de83398151915292908290030190a36001600160a01b0383166000908152600460205260409020429055610b0283612f51565b6001600160a01b038116612cb45760405162461bcd60e51b815260040180806020018281038252602681526020018061301e6026913960400191505060405180910390fd5b600080546040516001600160a01b03808516939216917f8be0079c531659141344cd1fd0a4f28419497f9722a3daafe3b4186f6b6457e091a3600080546001600160a01b0319166001600160a01b0392909216919091179055565b6001600160a01b038116612d2257600080fd5b6001600160a01b038216612d3557600080fd5b6001600160a01b038216301415612d7d5760405162461bcd60e51b815260040180806020018281038252602681526020018061307d6026913960400191505060405180910390fd5b600e546001600160a01b0382811691161415612ddf57600d546001600160a01b03838116911614612ddf5760405162461bcd60e51b81526004018080602001828103825260368152602001806131e76036913960400191505060405180910390fd5b6010546001600160a01b0382811691161415612e5957600e546001600160a01b0383811691161480612e1e5750600d546001600160a01b038381169116145b612e595760405162461bcd60e51b815260040180806020018281038252602c8152602001806132b2602c913960400191505060405180910390fd5b600e546001600160a01b0383811691161415612ed357600d546001600160a01b0382811691161480612e9857506010546001600160a01b038281169116145b612ed35760405162461bcd60e51b815260040180806020018281038252604a815260200180612fd4604a913960600191505060405180910390fd5b600d546001600160a01b0383811691161415612f4d57600e546001600160a01b0382811691161480612f1257506010546001600160a01b038281169116145b612f4d5760405162461bcd60e51b81526004018080602001828103825260498152602001806130a36049913960600191505060405180910390fd5b5050565b6001600160a01b0381166000908152600a602052604090205415611d9a576001600160a01b03166000908152600a6020526040812055565b6040518060a00160405280600590602082028038833950919291505056fe43616e6e6f742073657420756e6261636b656420747265617375727920746f20666565206164647265737320556e6261636b65642074726561737572792063616e206f6e6c7920726563656976652066726f6d2072656465656d206164647265737320616e64206261636b65642074726561737572794f776e61626c653a206e6577206f776e657220697320746865207a65726f20616464726573734163636f756e742068617320706169642073746f726167652066656573206d6f726520726563656e746c79207468616e20333635206461797343616e6e6f74207472616e7366657220746f6b656e7320746f2074686520636f6e74726163744f6e6c7920756e6261636b656420747265617375727920616e642072656465656d20616464726573732063616e207472616e7366657220746f206261636b65642074726561737572794163636f756e7420686173206e6f2062616c616e63652c2063616e6e6f7420666f72636520706179696e67206665657343616e6e6f742073657420666565206164647265737320746f20756e6261636b6564207472656173757279496e737566666963656e74206772616d73206c6f636b656420696e204c6f636b6564476f6c644f7261636c6520746f20636f6d706c657465206f7065726174696f6e4e6f206170707265636961626c652073746f726167652066656573206475652c2077696c6c20726566756e642067617343616e6e6f7420736574206261636b6564206164647265737320746f20756e6261636b6564207472656173757279556e6261636b65642074726561737572792063616e206f6e6c79207472616e7366657220746f206261636b6564207472656173757279536166654d6174683a206d756c7469706c69636174696f6e206f766572666c6f7743616e6e6f74207365742072656465656d206164647265737320746f20756e6261636b65642074726561737572794f776e61626c653a2063616c6c6572206973206e6f7420746865206f776e657254686520756e6261636b65642074726561737572792062616c616e6365206973206e6f74203052656465656d20616464726573732063616e206f6e6c79207472616e7366657220746f207472656173757279ddf252ad1be2c89b69c2b068fc378daa952ba7f163c4a11628f55a4df523b3ef43616e6e6f742073657420756e6261636b656420747265617375727920746f206261636b65642074726561737572794163636f756e74206e6f7420656c696769626c6520746f206265206d61726b656420696e6163746976655472616e736665722066656520626173697320706f696e7473206d75737420626520616e20696e7465676572206265747765656e203020616e64203130a265627a7a72315820372aef8637f26d411673ba0df6d4802802fddde7cb63ea1edfab40abc640faaa64736f6c63430005100032",
  "source": "pragma solidity 0.5.16;\n\nimport \"../node_modules/openzeppelin-solidity/contracts/ownership/Ownable.sol\";\nimport \"../node_modules/openzeppelin-solidity/contracts/token/ERC20/IERC20.sol\";\nimport \"../node_modules/openzeppelin-solidity/contracts/math/SafeMath.sol\";\nimport \"./LockedGoldOracle.sol\";\n\n\n/// @title The CacheGold Token Contract\n/// @author Cache Pte Ltd\ncontract CacheGold is IERC20, Ownable {\n\n  using SafeMath for uint256;\n\n  // ERC20 Detailed Info\n  /* solhint-disable */\n  string public constant name = \"CACHE Gold\";\n  string public constant symbol = \"CGT\";\n  uint8 public constant decimals = 8;\n  /* solhint-enable */\n\n  // 10^8 shortcut\n  uint256 private constant TOKEN = 10 ** uint256(decimals);\n\n  // Seconds in a day\n  uint256 private constant DAY = 86400;\n\n  // Days in a year\n  uint256 private constant YEAR = 365;\n\n  // The maximum transfer fee is 10 basis points\n  uint256 private constant MAX_TRANSFER_FEE_BASIS_POINTS = 10;\n\n  // Basis points means divide by 10,000 to get decimal\n  uint256 private constant BASIS_POINTS_MULTIPLIER = 10000;\n\n  // The storage fee of 0.25%\n  uint256 private constant STORAGE_FEE_DENOMINATOR = 40000000000;\n\n  // The inactive fee of 0.50%\n  uint256 private constant INACTIVE_FEE_DENOMINATOR = 20000000000;\n\n  // The minimum balance that would accrue a storage fee after 1 day\n  uint256 private constant MIN_BALANCE_FOR_FEES = 146000;\n\n  // Initial basis points for transfer fee\n  uint256 private _transferFeeBasisPoints = 10;\n\n  // Cap on total number of tokens that can ever be produced\n  uint256 public constant SUPPLY_CAP = 8133525786 * TOKEN;\n\n  // How many days need to pass before late fees can be collected (3 years)\n  uint256 public constant INACTIVE_THRESHOLD_DAYS = 1095;\n\n  // Token balance of each address\n  mapping (address => uint256) private _balances;\n\n  // Allowed transfer from address\n  mapping (address => mapping (address => uint256)) private _allowances;\n\n  // Last time storage fee was paid\n  mapping (address => uint256) private _timeStorageFeePaid;\n\n  // Last time the address produced a transaction on this contract\n  mapping (address => uint256) private _timeLastActivity;\n\n  // Amount of inactive fees already paid\n  mapping (address => uint256) private _inactiveFeePaid;\n\n  // If address doesn't have any activity for INACTIVE_THRESHOLD_DAYS\n  // we can start deducting chunks off the address so that\n  // full balance can be recouped after 200 years. This is likely\n  // to happen if the user loses their private key.\n  mapping (address => uint256) private _inactiveFeePerYear;\n\n  // Addresses not subject to transfer fees\n  mapping (address => bool) private _transferFeeExempt;\n\n  // Address is not subject to storage fees\n  mapping (address => bool) private _storageFeeExempt;\n\n  // Save grace period on storage fees for an address\n  mapping (address => uint256) private _storageFeeGracePeriod;\n\n  // Current total number of tokens created\n  uint256 private _totalSupply;\n\n  // Address where storage and transfer fees are collected\n  address private _feeAddress;\n\n  // The address for the \"backed treasury\". When a bar is locked into the\n  // vault for tokens to be minted, they are created in the backed_treasury\n  // and can then be sold from this address.\n  address private _backedTreasury;\n\n  // The address for the \"unbacked treasury\". The unbacked treasury is a\n  // storing address for excess tokens that are not locked in the vault\n  // and therefore do not correspond to any real world value. If new bars are\n  // locked in the vault, tokens will first be moved from the unbacked\n  // treasury to the backed treasury before minting new tokens.\n  //\n  // This address only accepts transfers from the _backedTreasury or _redeemAddress\n  // the general public should not be able to manipulate this balance.\n  address private _unbackedTreasury;\n\n  // The address for the LockedGoldOracle that determines the maximum number of\n  // tokens that can be in circulation at any given time\n  address private _oracle;\n\n  // A fee-exempt address that can be used to collect gold tokens in exchange\n  // for redemption of physical gold\n  address private _redeemAddress;\n\n  // An address that can force addresses with overdue storage or inactive fee to pay.\n  // This is separate from the contract owner, because the owner will change\n  // to a multisig address after deploy, and we want to be able to write\n  // a script that can sign \"force-pay\" transactions with a single private key\n  address private _feeEnforcer;\n\n  // Grace period before storage fees kick in\n  uint256 private _storageFeeGracePeriodDays = 0;\n\n  // When gold bars are locked, we add tokens to circulation either\n  // through moving them from the unbacked treasury or minting new ones,\n  // or some combination of both\n  event AddBackedGold(uint256 amount);\n\n  // Before gold bars can be unlocked (removed from circulation), they must\n  // be moved to the unbacked treasury, we emit an event when this happens\n  // to signal a change in the circulating supply\n  event RemoveGold(uint256 amount);\n\n  // When an account has no activity for INACTIVE_THRESHOLD_DAYS\n  // it will be flagged as inactive\n  event AccountInactive(address indexed account, uint256 feePerYear);\n\n  // If an previoulsy dormant account is reactivated\n  event AccountReActive(address indexed account);\n\n  /**\n   * @dev Contructor for the CacheGold token sets internal addresses\n   * @param unbackedTreasury The address of the unbacked treasury\n   * @param backedTreasury The address of the backed treasury\n   * @param feeAddress The address where fees are collected\n   * @param redeemAddress The address where tokens are send to redeem physical gold\n   * @param oracle The address of the LockedGoldOracle\n   */\n  constructor(address unbackedTreasury,\n              address backedTreasury,\n              address feeAddress,\n              address redeemAddress,\n              address oracle) public {\n    _unbackedTreasury = unbackedTreasury;\n    _backedTreasury = backedTreasury;\n    _feeAddress = feeAddress;\n    _redeemAddress = redeemAddress;\n    _feeEnforcer = owner();\n    _oracle = oracle;\n    setFeeExempt(_feeAddress);\n    setFeeExempt(_redeemAddress);\n    setFeeExempt(_backedTreasury);\n    setFeeExempt(_unbackedTreasury);\n    setFeeExempt(owner());\n  }\n\n  /**\n   * @dev Throws if called by any account other than THE ENFORCER\n   */\n  modifier onlyEnforcer() {\n    require(msg.sender == _feeEnforcer);\n    _;\n  }\n\n  /**\n  * @dev Transfer token for a specified address\n  * @param to The address to transfer to.\n  * @param value The amount to be transferred.\n  */\n  function transfer(address to, uint256 value) external returns (bool) {\n    // Update activity for the sender\n    _updateActivity(msg.sender);\n\n    // Can opportunistically mark an account inactive if someone\n    // sends money to it\n    if (_shouldMarkInactive(to)) {\n      _setInactive(to);\n    }\n\n    _transfer(msg.sender, to, value);\n    return true;\n  }\n\n  /**\n  * @dev Approve the passed address to spend the specified amount of tokens on behalf of msg.sender.\n  * Beware that changing an allowance with this method brings the risk that someone may use both the old\n  * and the new allowance by unfortunate transaction ordering. One possible solution to mitigate this\n  * race condition is to first reduce the spender's allowance to 0 and set the desired value afterwards:\n  * https://github.com/ethereum/EIPs/issues/20#issuecomment-263524729\n  * @param spender The address which will spend the funds.\n  * @param value The amount of tokens to be spent.\n  */\n  function approve(address spender, uint256 value) external returns (bool) {\n    _updateActivity(msg.sender);\n    _approve(msg.sender, spender, value);\n    return true;\n  }\n\n  /**\n  * @dev Transfer tokens from one address to another.\n  * Note that while this function emits an Approval event, this is not required as per the specification,\n  * and other compliant implementations may not emit the event.\n  * Also note that even though balance requirements are not explicitly checked,\n  * any transfer attempt over the approved amount will automatically fail due to\n  * SafeMath revert when trying to subtract approval to a negative balance\n  * @param from address The address which you want to send tokens from\n  * @param to address The address which you want to transfer to\n  * @param value uint256 the amount of tokens to be transferred\n  */\n  function transferFrom(address from, address to, uint256 value) external returns (bool) {\n    _updateActivity(msg.sender);\n    _transfer(from, to, value);\n    _approve(from, msg.sender, _allowances[from][msg.sender].sub(value));\n    return true;\n  }\n\n  /**\n  * @dev Increase the amount of tokens that an owner allowed to a spender.\n  * approve should be called when allowed_[_spender] == 0. To increment\n  * allowed value is better to use this function to avoid 2 calls (and wait until\n  * the first transaction is mined)\n  * From MonolithDAO Token.sol\n  * Emits an Approval event.\n  * @param spender The address which will spend the funds.\n  * @param addedValue The amount of tokens to increase the allowance by.\n  */\n  function increaseAllowance(address spender, uint256 addedValue) external returns (bool) {\n    _updateActivity(msg.sender);\n    _approve(msg.sender, spender, _allowances[msg.sender][spender].add(addedValue));\n    return true;\n  }\n\n  /**\n  * @dev Decrease the amount of tokens that an owner allowed to a spender.\n  * approve should be called when allowed_[_spender] == 0. To decrement\n  * allowed value is better to use this function to avoid 2 calls (and wait until\n  * the first transaction is mined)\n  * From MonolithDAO Token.sol\n  * Emits an Approval event.\n  * @param spender The address which will spend the funds.\n  * @param subtractedValue The amount of tokens to decrease the allowance by.\n  */\n  function decreaseAllowance(address spender, uint256 subtractedValue) external returns (bool) {\n    _updateActivity(msg.sender);\n    _approve(msg.sender, spender, _allowances[msg.sender][spender].sub(subtractedValue));\n    return true;\n  }\n\n  /**\n  * @dev Function to add a certain amount of backed tokens. This will first\n  * take any tokens from the _unbackedTreasury address and move them to the\n  * _backedTreasury. Any remaining tokens will actually be minted.\n  * This operation will fail if there is not a sufficient supply of locked gold\n  * as determined by the LockedGoldOracle\n  *\n  * @param value The amount of tokens to add to the backed treasury\n  * @return A boolean that indicates if the operation was successful.\n  */\n  function addBackedTokens(uint256 value) external onlyOwner returns (bool)\n  {\n    uint256 unbackedBalance = _balances[_unbackedTreasury];\n\n    // Use oracle to check if there is actually enough gold\n    // in custody to validate this operation\n    uint256 lockedGrams =  LockedGoldOracle(_oracle).lockedGold();\n\n    // Should reject mint if it would make the total supply\n    // exceed the amount actually locked in vault\n    require(lockedGrams >= totalCirculation().add(value),\n            \"Insufficent grams locked in LockedGoldOracle to complete operation\");\n\n    // If we have sufficient balance, just move from the unbacked to backed\n    // treasury address\n    if (value <= unbackedBalance) {\n      _transfer(_unbackedTreasury, _backedTreasury, value);\n    } else {\n      if (unbackedBalance > 0) {\n        // There is no sufficient balance, so we have to both transfer and mint new tokens\n        // Transfer the remaining unbacked treasury balance to backed treasury\n        _transfer(_unbackedTreasury, _backedTreasury, unbackedBalance);\n      }\n\n      // And mint the remaining to the backed treasury\n      _mint(value.sub(unbackedBalance));\n    }\n    emit AddBackedGold(value);\n    return true;\n  }\n\n  /**\n  * @dev Manually pay storage fees on senders address. Exchanges may want to\n  * periodically call this function to pay owed storage fees. This is a\n  * cheaper option than 'send to self', which would also trigger paying\n  * storage fees\n  *\n  * @return A boolean that indicates if the operation was successful.\n  */\n  function payStorageFee() external returns (bool) {\n    _updateActivity(msg.sender);\n    _payStorageFee(msg.sender);\n    return true;\n  }\n\n  function setAccountInactive(address account) external onlyEnforcer returns (bool) {\n    require(_shouldMarkInactive(account), \"Account not eligible to be marked inactive\");\n    _setInactive(account);\n  }\n\n  /**\n  * @dev Contract allows the forcible collection of storage fees on an address\n  * if it is has been more than than 365 days since the last time storage fees\n  * were paid on this address.\n  *\n  * Alternatively inactive fees may also be collected periodically on a prorated\n  * basis if the account is currently marked as inactive.\n  *\n  * @param account The address to pay storage fees on\n  * @return A boolean that indicates if the operation was successful.\n  */\n  function forcePayFees(address account) external onlyEnforcer returns(bool) {\n    require(account != address(0));\n    require(_balances[account] > 0,\n            \"Account has no balance, cannot force paying fees\");\n\n    // If account is inactive, pay inactive fees\n    if (isInactive(account)) {\n      uint256 paid = _payInactiveFee(account);\n      require(paid > 0);\n    } else if (_shouldMarkInactive(account)) {\n      // If it meets inactive threshold, but hasn't been set yet, set it.\n      // This will also trigger automatic payment of owed storage fees\n      // before starting inactive fees\n      _setInactive(account);\n    } else {\n      // Otherwise just force paying owed storage fees, which can only\n      // be called if they are more than 365 days overdue\n      require(daysSincePaidStorageFee(account) >= YEAR,\n              \"Account has paid storage fees more recently than 365 days\");\n      uint256 paid = _payStorageFee(account);\n      require(paid > 0, \"No appreciable storage fees due, will refund gas\");\n    }\n  }\n\n  /**\n  * @dev Set the address that can force collecting fees from users\n  * @param enforcer The address to force collecting fees\n  * @return An bool representing successfully changing enforcer address\n  */\n  function setFeeEnforcer(address enforcer) external onlyOwner returns(bool) {\n    require(enforcer != address(0));\n    _feeEnforcer = enforcer;\n    setFeeExempt(_feeEnforcer);\n    return true;\n  }\n\n  /**\n  * @dev Set the address to collect fees\n  * @param newFeeAddress The address to collect storage and transfer fees\n  * @return An bool representing successfully changing fee address\n  */\n  function setFeeAddress(address newFeeAddress) external onlyOwner returns(bool) {\n    require(newFeeAddress != address(0));\n    require(newFeeAddress != _unbackedTreasury,\n            \"Cannot set fee address to unbacked treasury\");\n    _feeAddress = newFeeAddress;\n    setFeeExempt(_feeAddress);\n    return true;\n  }\n\n  /**\n  * @dev Set the address to deposit tokens when redeeming for physical locked bars.\n  * @param newRedeemAddress The address to redeem tokens for bars\n  * @return An bool representing successfully changing redeem address\n  */\n  function setRedeemAddress(address newRedeemAddress) external onlyOwner returns(bool) {\n    require(newRedeemAddress != address(0));\n    require(newRedeemAddress != _unbackedTreasury,\n            \"Cannot set redeem address to unbacked treasury\");\n    _redeemAddress = newRedeemAddress;\n    setFeeExempt(_redeemAddress);\n    return true;\n  }\n\n  /**\n  * @dev Set the address of backed treasury\n  * @param newBackedAddress The address of backed treasury\n  * @return An bool representing successfully changing backed address\n  */\n  function setBackedAddress(address newBackedAddress) external onlyOwner returns(bool) {\n    require(newBackedAddress != address(0));\n    require(newBackedAddress != _unbackedTreasury,\n            \"Cannot set backed address to unbacked treasury\");\n    _backedTreasury = newBackedAddress;\n    setFeeExempt(_backedTreasury);\n    return true;\n  }\n\n  /**\n  * @dev Set the address to unbacked treasury\n  * @param newUnbackedAddress The address of unbacked treasury\n  * @return An bool representing successfully changing unbacked address\n  */\n  function setUnbackedAddress(address newUnbackedAddress) external onlyOwner returns(bool) {\n    require(newUnbackedAddress != address(0));\n    require(newUnbackedAddress != _backedTreasury,\n            \"Cannot set unbacked treasury to backed treasury\");\n    require(newUnbackedAddress != _feeAddress,\n            \"Cannot set unbacked treasury to fee address \");\n    require(newUnbackedAddress != _redeemAddress,\n            \"Cannot set unbacked treasury to fee address \");\n    _unbackedTreasury = newUnbackedAddress;\n    setFeeExempt(_unbackedTreasury);\n    return true;\n  }\n\n  /**\n  * @dev Set the LockedGoldOracle address\n  * @param oracleAddress The address for oracle\n  * @return An bool representing successfully changing oracle address\n  */\n  function setOracleAddress(address oracleAddress) external onlyOwner returns(bool) {\n    require(oracleAddress != address(0));\n    _oracle = oracleAddress;\n    return true;\n  }\n\n  /**\n  * @dev Set the number of days before storage fees begin accruing.\n  * @param daysGracePeriod The global setting for the grace period before storage\n  * fees begin accruing. Note that calling this will not change the grace period\n  * for addresses already actively inside a grace period\n  */\n  function setStorageFeeGracePeriodDays(uint256 daysGracePeriod) external onlyOwner {\n    _storageFeeGracePeriodDays = daysGracePeriod;\n  }\n\n  /**\n  * @dev Set this account as being exempt from transfer fees. This may be used\n  * in special circumstance for cold storage addresses owed by Cache, exchanges, etc.\n  * @param account The account to exempt from transfer fees\n  */\n  function setTransferFeeExempt(address account) external onlyOwner {\n    _transferFeeExempt[account] = true;\n  }\n\n  /**\n  * @dev Set this account as being exempt from storage fees. This may be used\n  * in special circumstance for cold storage addresses owed by Cache, exchanges, etc.\n  * @param account The account to exempt from storage fees\n  */\n  function setStorageFeeExempt(address account) external onlyOwner {\n    _storageFeeExempt[account] = true;\n  }\n\n  /**\n  * @dev Set account is no longer exempt from all fees\n  * @param account The account to reactivate fees\n  */\n  function unsetFeeExempt(address account) external onlyOwner {\n    _transferFeeExempt[account] = false;\n    _storageFeeExempt[account] = false;\n  }\n\n  /**\n  * @dev Set a new transfer fee in basis points, must be less than or equal to 10 basis points\n  * @param fee The new transfer fee in basis points\n  */\n  function setTransferFeeBasisPoints(uint256 fee) external onlyOwner {\n    require(fee <= MAX_TRANSFER_FEE_BASIS_POINTS,\n            \"Transfer fee basis points must be an integer between 0 and 10\");\n    _transferFeeBasisPoints = fee;\n  }\n\n  /**\n  * @dev Gets the balance of the specified address deducting owed fees and\n  * accounting for the maximum amount that could be sent including transfer fee\n  * @param owner The address to query the balance of.\n  * @return An uint256 representing the amount sendable by the passed address\n  * including transaction and storage fees\n  */\n  function balanceOf(address owner) external view returns (uint256) {\n    return calcSendAllBalance(owner);\n  }\n\n  /**\n  * @dev Gets the balance of the specified address not deducting owed fees.\n  * this returns the 'traditional' ERC-20 balance that represents the balance\n  * currently stored in contract storage.\n  * @param owner The address to query the balance of.\n  * @return An uint256 representing the amount stored in passed address\n  */\n  function balanceOfNoFees(address owner) external view returns (uint256) {\n    return _balances[owner];\n  }\n\n  /**\n  * @dev Total number of tokens in existence. This includes tokens\n  * in the unbacked treasury that are essentially unusable and not\n  * in circulation\n  * @return A uint256 representing the total number of minted tokens\n  */\n  function totalSupply() external view returns (uint256) {\n    return _totalSupply;\n  }\n\n  /**\n  * @dev Function to check the amount of tokens that an owner allowed to a spender.\n  * @param owner address The address which owns the funds.\n  * @param spender address The address which will spend the funds.\n  * @return A uint256 specifying the amount of tokens still available for the spender.\n  */\n  function allowance(address owner, address spender) external view returns (uint256) {\n    return _allowances[owner][spender];\n  }\n\n  /**\n  * @return address that can force paying overdue inactive fees\n  */\n  function feeEnforcer() external view returns(address) {\n    return _feeEnforcer;\n  }\n\n  /**\n   * @return address where fees are collected\n   */\n  function feeAddress() external view returns(address) {\n    return _feeAddress;\n  }\n\n  /**\n   * @return address for redeeming tokens for gold bars\n   */\n  function redeemAddress() external view returns(address) {\n    return _redeemAddress;\n  }\n\n  /**\n   * @return address for backed treasury\n   */\n  function backedTreasury() external view returns(address) {\n    return _backedTreasury;\n  }\n\n  /**\n  * @return address for unbacked treasury\n  */\n  function unbackedTreasury() external view returns(address) {\n    return _unbackedTreasury;\n  }\n\n  /**\n  * @return address for oracle contract\n  */\n  function oracleAddress() external view returns(address) {\n    return _oracle;\n  }\n\n  /**\n  * @return the current number of days and address is exempt\n  * from storage fees upon receiving tokens\n  */\n  function storageFeeGracePeriodDays() external view returns(uint256) {\n    return _storageFeeGracePeriodDays;\n  }\n\n  /**\n  * @return the current transfer fee in basis points [0-10]\n  */\n  function transferFeeBasisPoints() external view returns(uint256) {\n    return _transferFeeBasisPoints;\n  }\n\n  /**\n  * @dev Simulate the transfer from one address to another see final balances and associated fees\n  * @param from The address to transfer from.\n  * @param to The address to transfer to.\n  * @param value The amount to be transferred.\n  * @return See _simulateTransfer function\n  */\n  function simulateTransfer(address from, address to, uint256 value) external view returns (uint256[5] memory) {\n    return _simulateTransfer(from, to, value);\n  }\n\n  /**\n  * @dev Set this account as being exempt from all fees. This may be used\n  * in special circumstance for cold storage addresses owed by Cache, exchanges, etc.\n  * @param account The account to exempt from storage and transfer fees\n  */\n  function setFeeExempt(address account) public onlyOwner {\n    _transferFeeExempt[account] = true;\n    _storageFeeExempt[account] = true;\n  }\n\n  /**\n  * @dev Check if the address given is extempt from storage fees\n  * @param account The address to check\n  * @return A boolean if the address passed is exempt from storage fees\n  */\n  function isStorageFeeExempt(address account) public view returns(bool) {\n    return _storageFeeExempt[account];\n  }\n\n  /**\n  * @dev Check if the address given is extempt from transfer fees\n  * @param account The address to check\n  * @return A boolean if the address passed is exempt from transfer fees\n  */\n  function isTransferFeeExempt(address account) public view returns(bool) {\n    return _transferFeeExempt[account];\n  }\n\n  /**\n  * @dev Check if the address given is extempt from transfer fees\n  * @param account The address to check\n  * @return A boolean if the address passed is exempt from transfer fees\n  */\n  function isAllFeeExempt(address account) public view returns(bool) {\n    return _transferFeeExempt[account] && _storageFeeExempt[account];\n  }\n\n  /**\n  * @dev Check if the address is considered inactive for not having transacted with\n  * the contract for INACTIVE_THRESHOLD_DAYS\n  * @param account The address to check\n  * @return A boolean if the address passed is considered inactive\n  */\n  function isInactive(address account) public view returns(bool) {\n    return _inactiveFeePerYear[account] > 0;\n  }\n\n  /**\n  * @dev Total number of tokens that are actually in circulation, which is\n  * total tokens excluding the unbacked treasury\n  * @return A uint256 representing the total number of tokens in circulation\n  */\n  function totalCirculation() public view returns (uint256) {\n    return _totalSupply.sub(_balances[_unbackedTreasury]);\n  }\n\n  /**\n  * @dev Get the number of days since the account last paid storage fees\n  * @param account The address to check\n  * @return A uint256 representing the number of days since storage fees where last paid\n  */\n  function daysSincePaidStorageFee(address account) public view returns(uint256) {\n    if (isInactive(account) || _timeStorageFeePaid[account] == 0) {\n      return 0;\n    }\n    return block.timestamp.sub(_timeStorageFeePaid[account]).div(DAY);\n  }\n\n  /**\n  * @dev Get the days since the account last sent a transaction to the contract (activity)\n  * @param account The address to check\n  * @return A uint256 representing the number of days since the address last had activity\n  * with the contract\n  */\n  function daysSinceActivity(address account) public view returns(uint256) {\n    if (_timeLastActivity[account] == 0) {\n      return 0;\n    }\n    return block.timestamp.sub(_timeLastActivity[account]).div(DAY);\n  }\n\n  /**\n  * @dev Returns the total number of fees owed on a particular address\n  * @param account The address to check\n  * @return The total storage and inactive fees owed on the address\n  */\n  function calcOwedFees(address account) public view returns(uint256) {\n    return calcStorageFee(account).add(calcInactiveFee(account));\n  }\n\n  /**\n   * @dev Calculate the current storage fee owed for a given address\n   * @param account The address to check\n   * @return A uint256 representing current storage fees for the address\n   */\n  function calcStorageFee(address account) public view returns(uint256) {\n\n    // If an account is in an inactive state those fees take over and\n    // storage fees are effectively paused\n    uint256 balance = _balances[account];\n    if (isInactive(account) || isStorageFeeExempt(account) || balance == 0) {\n      return 0;\n    }\n\n    uint256 daysSinceStoragePaid = daysSincePaidStorageFee(account);\n    uint256 daysInactive = daysSinceActivity(account);\n    uint256 gracePeriod = _storageFeeGracePeriod[account];\n\n    // If there is a grace period, we can deduct it from the daysSinceStoragePaid\n    if (gracePeriod > 0) {\n      if (daysSinceStoragePaid > gracePeriod) {\n        daysSinceStoragePaid = daysSinceStoragePaid.sub(gracePeriod);\n      } else {\n        daysSinceStoragePaid = 0;\n      }\n    }\n\n    if (daysSinceStoragePaid == 0) {\n      return 0;\n    }\n\n    // This is an edge case where the account has not yet been marked inactive, but\n    // will be marked inactive whenever there is a transaction allowing it to be marked.\n    // Therefore we know storage fees will only be valid up to a point, and inactive\n    // fees will take over.\n    if (daysInactive >= INACTIVE_THRESHOLD_DAYS) {\n      // This should not be at risk of being negative, because its impossible to force paying\n      // storage fees without also setting the account to inactive, so if we are here it means\n      // the last time storage fees were paid was BEFORE the account became eligible to be inactive\n      // and it's always the case that daysSinceStoragePaid > daysInactive.sub(INACTIVE_THRESHOLD_DAYS)\n      daysSinceStoragePaid = daysSinceStoragePaid.sub(daysInactive.sub(INACTIVE_THRESHOLD_DAYS));\n    }\n\n    // The normal case with normal storage fees\n    return storageFee(balance, daysSinceStoragePaid);\n  }\n\n  /**\n   * @dev Calculate the current inactive fee for a given address\n   * @param account The address to check\n   * @return A uint256 representing current inactive fees for the address\n   */\n  function calcInactiveFee(address account) public view returns(uint256) {\n    uint256 balance = _balances[account];\n    uint256 daysInactive = daysSinceActivity(account);\n\n    // if the account is marked inactive already, can use the snapshot balance\n    if (isInactive(account)) {\n      return _calcInactiveFee(balance,\n                          daysInactive,\n                          _inactiveFeePerYear[account],\n                          _inactiveFeePaid[account]);\n    } else if (_shouldMarkInactive(account)) {\n      // Account has not yet been marked inactive in contract, but the inactive fees will still be due.\n      // Just assume snapshotBalance will be current balance after fees\n      uint256 snapshotBalance = balance.sub(calcStorageFee(account));\n      return _calcInactiveFee(snapshotBalance,                          // current balance\n                              daysInactive,                             // number of days inactive\n                              _calcInactiveFeePerYear(snapshotBalance), // the inactive fee per year based on balance\n                              0);                                       // fees paid already\n    }\n    return 0;\n  }\n\n  /**\n   * @dev Calculate the amount that would clear the balance from the address\n   * accounting for owed storage and transfer fees\n   * accounting for storage and transfer fees\n   * @param account The address to check\n   * @return A uint256 representing total amount an address has available to send\n   */\n  function calcSendAllBalance(address account) public view returns (uint256) {\n    require(account != address(0));\n\n    // Internal addresses pay no fees, so they can send their entire balance\n    uint256 balanceAfterStorage = _balances[account].sub(calcOwedFees(account));\n    if (_transferFeeBasisPoints == 0 || isTransferFeeExempt(account)) {\n      return balanceAfterStorage;\n    }\n\n    // Edge cases where remaining balance is 0.00000001, but is effectively 0\n    if (balanceAfterStorage <= 1) {\n      return 0;\n    }\n\n    // Calculate the send all amount including storage fee\n    // Send All = Balance / 1.001\n    // and round up 0.00000001\n    uint256 divisor = TOKEN.add(_transferFeeBasisPoints.mul(BASIS_POINTS_MULTIPLIER));\n    uint256 sendAllAmount = balanceAfterStorage.mul(TOKEN).div(divisor).add(1);\n\n    // Calc transfer fee on send all amount\n    uint256 transFee = sendAllAmount.mul(_transferFeeBasisPoints).div(BASIS_POINTS_MULTIPLIER);\n\n    // Fix to include rounding errors\n    if (sendAllAmount.add(transFee) > balanceAfterStorage) {\n      return sendAllAmount.sub(1);\n    }\n\n    return sendAllAmount;\n  }\n\n  /*\n   * @dev Calculate the transfer fee on an amount\n   * @param value The value being sent\n   * @return A uint256 representing the transfer fee on sending the value given\n   */\n  function calcTransferFee(address account, uint256 value) public view returns(uint256) {\n    if (isTransferFeeExempt(account)) {\n      return 0;\n    }\n    // Basis points -> decimal multiplier:\n    // f(x) = x / 10,0000 (10 basis points is 0.001)\n    // So transfer fee working with integers =\n    // f(balance, basis) = (balance * TOKEN) / (10,000 * TOKEN / basis)\n    return value.mul(_transferFeeBasisPoints).div(BASIS_POINTS_MULTIPLIER);\n  }\n\n  /*\n   * @dev Calculate the storage fee for a given balance after a certain number of\n   * days have passed since the last time fees were paid.\n   * @param balance The current balance of the address\n   * @param daysSinceStoragePaid The number days that have passed since fees where last paid\n   * @return A uint256 representing the storage fee owed\n   */\n  function storageFee(uint256 balance, uint256 daysSinceStoragePaid) public pure returns(uint256) {\n    uint256 fee = balance.mul(TOKEN).mul(daysSinceStoragePaid).div(YEAR).div(STORAGE_FEE_DENOMINATOR);\n    if (fee > balance) {\n      return balance;\n    }\n    return fee;\n  }\n\n  /**\n   * @dev Approve an address to spend another addresses' tokens.\n   * @param owner The address that owns the tokens.\n   * @param spender The address that will spend the tokens.\n   * @param value The number of tokens that can be spent.\n   */\n  function _approve(address owner, address spender, uint256 value) internal {\n    require(spender != address(0));\n    require(owner != address(0));\n\n    _allowances[owner][spender] = value;\n    emit Approval(owner, spender, value);\n  }\n\n  /**\n  * @dev Transfer token for a specified addresses. Transfer is modified from a\n  * standard ERC20 contract in that it must also process transfer and storage fees\n  * for the token itself. Additionally there are certain internal addresses that\n  * are not subject to fees.\n  * @param from The address to transfer from.\n  * @param to The address to transfer to.\n  * @param value The amount to be transferred.\n  */\n  function _transfer(address from, address to, uint256 value) internal {\n\n    _transferRestrictions(to, from);\n\n    // If the account was previously inactive and initiated the transfer, the\n    // inactive fees and storage fees have already been paid by the time we get here\n    // via the _updateActivity() call\n    uint256 storageFeeFrom = calcStorageFee(from);\n    uint256 storageFeeTo = 0;\n    uint256 allFeeFrom = storageFeeFrom;\n    uint256 balanceFromBefore = _balances[from];\n    uint256 balanceToBefore = _balances[to];\n\n    // If not sending to self can pay storage and transfer fee\n    if (from != to) {\n      // Need transfer fee and storage fee for receiver if not sending to self\n      allFeeFrom = allFeeFrom.add(calcTransferFee(from, value));\n      storageFeeTo = calcStorageFee(to);\n      _balances[from] = balanceFromBefore.sub(value).sub(allFeeFrom);\n      _balances[to] = balanceToBefore.add(value).sub(storageFeeTo);\n      _balances[_feeAddress] = _balances[_feeAddress].add(allFeeFrom).add(storageFeeTo);\n\n    } else {\n      // Only storage fee if sending to self\n      _balances[from] = balanceFromBefore.sub(storageFeeFrom);\n      _balances[_feeAddress] = _balances[_feeAddress].add(storageFeeFrom);\n    }\n\n    // Regular Transfer\n    emit Transfer(from, to, value);\n\n    // Fee transfer on `from` address\n    if (allFeeFrom > 0) {\n      emit Transfer(from, _feeAddress, allFeeFrom);\n      if (storageFeeFrom > 0) {\n        _timeStorageFeePaid[from] = block.timestamp;\n        _endGracePeriod(from);\n      }\n    }\n\n    // If first time receiving coins, set the grace period\n    // and start the the activity clock and storage fee clock\n    if (_timeStorageFeePaid[to] == 0) {\n      // We may change the grace period in the future so we want to\n      // preserve it per address so there is no retroactive deduction\n      _storageFeeGracePeriod[to] = _storageFeeGracePeriodDays;\n      _timeLastActivity[to] = block.timestamp;\n      _timeStorageFeePaid[to] = block.timestamp;\n    }\n\n    // Fee transfer on `to` address\n    if (storageFeeTo > 0) {\n      emit Transfer(to, _feeAddress, storageFeeTo);\n      _timeStorageFeePaid[to] = block.timestamp;\n      _endGracePeriod(to);\n    } else if (balanceToBefore < MIN_BALANCE_FOR_FEES) {\n      // MIN_BALANCE_FOR_FEES is the minimum amount in which a storage fee\n      // would be due after a sigle day, so if the balance is above that,\n      // the storage fee would always be greater than 0.\n      //\n      // This avoids the following condition:\n      // 1. User receives tokens\n      // 2. Users sends all but a tiny amount to another address\n      // 3. A year later, the user receives more tokens. Because\n      // their previous balance was super small, there were no appreciable\n      // storage fee, therefore the storage fee clock was not reset\n      // 4. User now owes storage fees on entire balance, as if they\n      // held tokens for 1 year, instead of resetting the clock to now.\n      _timeStorageFeePaid[to] = block.timestamp;\n    }\n\n    // If transferring to unbacked treasury, tokens are being taken from\n    // circulation, because gold is being 'unlocked' from the vault\n    if (to == _unbackedTreasury) {\n      emit RemoveGold(value);\n    }\n  }\n\n  /**\n  * @dev Function to mint tokens to backed treasury. In general this method\n  * will not be called on it's own, but instead will be called from\n  * addBackedTokens.\n  * @param value The amount of tokens to mint to backed treasury\n  * @return A boolean that indicates if the operation was successful.\n  */\n  function _mint(uint256 value) internal returns(bool) {\n\n    // Can't break supply cap\n    require(_totalSupply.add(value) <= SUPPLY_CAP, \"Call would exceed supply cap\");\n\n    // Can only mint if the unbacked treasury balance is 0\n    require(_balances[_unbackedTreasury] == 0, \"The unbacked treasury balance is not 0\");\n\n    // Can only mint to the backed treasury\n    _totalSupply = _totalSupply.add(value);\n    _balances[_backedTreasury] = _balances[_backedTreasury].add(value);\n    emit Transfer(address(0), _backedTreasury, value);\n    return true;\n  }\n\n  /**\n   * @dev Apply storage fee deduction\n   * @param account The account to pay storage fees\n   * @return A uint256 representing the storage fee paid\n   */\n  function _payStorageFee(address account) internal returns(uint256) {\n    uint256 storeFee = calcStorageFee(account);\n    if (storeFee == 0) {\n      return 0;\n    }\n\n    // Reduce account balance and add to fee address\n    _balances[account] = _balances[account].sub(storeFee);\n    _balances[_feeAddress] = _balances[_feeAddress].add(storeFee);\n    emit Transfer(account, _feeAddress, storeFee);\n    _timeStorageFeePaid[account] = block.timestamp;\n    _endGracePeriod(account);\n    return storeFee;\n  }\n\n  /**\n   * @dev Apply inactive fee deduction\n   * @param account The account to pay inactive fees\n   * @return A uint256 representing the inactive fee paid\n   */\n  function _payInactiveFee(address account) internal returns(uint256) {\n    uint256 fee = _calcInactiveFee(\n        _balances[account],\n        daysSinceActivity(account),\n        _inactiveFeePerYear[account],\n        _inactiveFeePaid[account]);\n\n    if (fee == 0) {\n      return 0;\n    }\n\n    _balances[account] = _balances[account].sub(fee);\n    _balances[_feeAddress] = _balances[_feeAddress].add(fee);\n    _inactiveFeePaid[account] = _inactiveFeePaid[account].add(fee);\n    emit Transfer(account, _feeAddress, fee);\n    return fee;\n  }\n\n  function _shouldMarkInactive(address account) internal view returns(bool) {\n    // Can only mark an account as inactive if\n    //\n    // 1. it's not fee exempt\n    // 2. it has a balance\n    // 3. it's been over INACTIVE_THRESHOLD_DAYS since last activity\n    // 4. it's not already marked inactive\n    // 5. the storage fees owed already consume entire balance\n    if (account != address(0) &&\n        _balances[account] > 0 &&\n        daysSinceActivity(account) >= INACTIVE_THRESHOLD_DAYS &&\n        !isInactive(account) &&\n        !isAllFeeExempt(account) &&\n        _balances[account].sub(calcStorageFee(account)) > 0) {\n      return true;\n    }\n    return false;\n  }\n\n  /**\n  * @dev Mark an account as inactive. The function will automatically deduct\n  * owed storage fees and inactive fees in one go.\n  *\n  * @param account The account to mark inactive\n  */\n  function _setInactive(address account) internal {\n\n    // First get owed storage fees\n    uint256 storeFee = calcStorageFee(account);\n    uint256 snapshotBalance = _balances[account].sub(storeFee);\n\n    // all _setInactive calls are wrapped in _shouldMarkInactive, which\n    // already checks this, so we shouldn't hit this condition\n    assert(snapshotBalance > 0);\n\n    // Set the account inactive on deducted balance\n    _inactiveFeePerYear[account] = _calcInactiveFeePerYear(snapshotBalance);\n    emit AccountInactive(account, _inactiveFeePerYear[account]);\n    uint256 inactiveFees = _calcInactiveFee(snapshotBalance,\n                                            daysSinceActivity(account),\n                                            _inactiveFeePerYear[account],\n                                            0);\n\n    // Deduct owed storage and inactive fees\n    uint256 fees = storeFee.add(inactiveFees);\n    _balances[account] = _balances[account].sub(fees);\n    _balances[_feeAddress] = _balances[_feeAddress].add(fees);\n    _inactiveFeePaid[account] = _inactiveFeePaid[account].add(inactiveFees);\n    emit Transfer(account, _feeAddress, fees);\n\n    // Reset storage fee clock if storage fees paid\n    if (storeFee > 0) {\n      _timeStorageFeePaid[account] = block.timestamp;\n      _endGracePeriod(account);\n    }\n  }\n\n  /**\n  * @dev Update the activity clock on an account thats originated a transaction.\n  * If the account has previously been marked inactive or should have been\n  * marked inactive, it will opportunistically collect those owed fees.\n  *\n  * @param account The account to update activity\n  */\n  function _updateActivity(address account) internal {\n    // Cache has the ability to force collecting storage and inactivity fees,\n    // but in the event an address was missed, can we still detect if the\n    // account was inactive when they next transact\n    //\n    // Here we simply set the account as being inactive, collect the previous\n    // storage and inactive fees that were owed, and then reactivate the account\n    if (_shouldMarkInactive(account)) {\n      // Call will pay existing storage fees before marking inactive\n      _setInactive(account);\n    }\n\n    // Pay remaining fees and reset fee clocks\n    if (isInactive(account)) {\n      _payInactiveFee(account);\n      _inactiveFeePerYear[account] = 0;\n      _timeStorageFeePaid[account] = block.timestamp;\n      emit AccountReActive(account);\n    }\n\n    // The normal case will just hit this and update\n    // the activity clock for the account\n    _timeLastActivity[account] = block.timestamp;\n  }\n\n  /**\n   * @dev Turn off storage fee grace period for an address the first\n   * time storage fees are paid (after grace period has ended)\n   * @param account The account to turn off storage fee grace period\n   */\n  function _endGracePeriod(address account) internal {\n    if (_storageFeeGracePeriod[account] > 0) {\n      _storageFeeGracePeriod[account] = 0;\n    }\n  }\n\n  /**\n  * @dev Enforce the rules of which addresses can transfer to others\n  * @param to The sending address\n  * @param from The receiving address\n  */\n  function _transferRestrictions(address to, address from) internal view {\n    require(from != address(0));\n    require(to != address(0));\n    require(to != address(this), \"Cannot transfer tokens to the contract\");\n\n    // unbacked treasury can only transfer to backed treasury\n    if (from == _unbackedTreasury) {\n      require(to == _backedTreasury,\n              \"Unbacked treasury can only transfer to backed treasury\");\n    }\n\n    // redeem address can only transfer to unbacked or backed treasury\n    if (from == _redeemAddress) {\n      require((to == _unbackedTreasury) || (to == _backedTreasury),\n              \"Redeem address can only transfer to treasury\");\n    }\n\n    // Only the backed treasury  and redeem address\n    // can transfer to unbacked treasury\n    if (to == _unbackedTreasury) {\n      require((from == _backedTreasury) || (from == _redeemAddress),\n              \"Unbacked treasury can only receive from redeem address and backed treasury\");\n    }\n\n    // Only the unbacked treasury can transfer to the backed treasury\n    if (to == _backedTreasury) {\n      require((from == _unbackedTreasury) || (from == _redeemAddress),\n              \"Only unbacked treasury and redeem address can transfer to backed treasury\");\n    }\n  }\n\n  /**\n   * @dev Simulate the transfer from one address to another see final balances and associated fees\n   * @param from address The address which you want to send tokens from\n   * @param to address The address which you want to transfer to\n   * @return a uint256 array of 5 values representing the\n   * [0] storage fees `from`\n   * [1] storage fees `to`\n   * [2] transfer fee `from`\n   * [3] final `from` balance\n   * [4] final `to` balance\n   */\n  function _simulateTransfer(address from, address to, uint256 value) internal view returns (uint256[5] memory) {\n    uint256[5] memory ret;\n    // Return value slots\n    // 0 - fees `from`\n    // 1 - fees `to`\n    // 2 - transfer fee `from`\n    // 3 - final `from` balance\n    // 4 - final `to` balance\n    ret[0] = calcOwedFees(from);\n    ret[1] = 0;\n    ret[2] = 0;\n\n    // Don't double charge storage fee sending to self\n    if (from != to) {\n      ret[1] = calcOwedFees(to);\n      ret[2] = calcTransferFee(from, value);\n      ret[3] = _balances[from].sub(value).sub(ret[0]).sub(ret[2]);\n      ret[4] = _balances[to].add(value).sub(ret[1]);\n    } else {\n      ret[3] = _balances[from].sub(ret[0]);\n      ret[4] = ret[3];\n    }\n    return ret;\n  }\n\n  /**\n  * @dev Calculate the amount of inactive fees due per year on the snapshot balance.\n  * Should return 50 basis points or 1 token minimum.\n  *\n  * @param snapshotBalance The balance of the account when marked inactive\n  * @return uint256 the inactive fees due each year\n  */\n  function _calcInactiveFeePerYear(uint256 snapshotBalance) internal pure returns(uint256) {\n    uint256 inactiveFeePerYear = snapshotBalance.mul(TOKEN).div(INACTIVE_FEE_DENOMINATOR);\n    if (inactiveFeePerYear < TOKEN) {\n      return TOKEN;\n    }\n    return inactiveFeePerYear;\n  }\n\n  /**\n  * @dev Calcuate inactive fees due on an account\n  * @param balance The current account balance\n  * @param daysInactive The number of days the account has been inactive\n  * @param feePerYear The inactive fee per year based on snapshot balance\n  * @param paidAlready The amount of inactive fees that have been paid already\n  * @return uint256 for inactive fees due\n  */\n  function _calcInactiveFee(uint256 balance,\n                        uint256 daysInactive,\n                        uint256 feePerYear,\n                        uint256 paidAlready) internal pure returns(uint256) {\n    uint256 daysDue = daysInactive.sub(INACTIVE_THRESHOLD_DAYS);\n    uint256 totalDue = feePerYear.mul(TOKEN).mul(daysDue).div(YEAR).div(TOKEN).sub(paidAlready);\n\n    // The fee per year can be off by 0.00000001 so we can collect\n    // the final dust after 200 years\n    if (totalDue > balance || balance.sub(totalDue) <= 200) {\n      return balance;\n    }\n    return totalDue;\n  }\n}\n",
  "sourcePath": "/home/conor/cache-contract/contracts/CacheGold.sol",
  "compiler": {
    "name": "solc",
    "version": "0.5.16+commit.9c3226ce.Emscripten.clang"
  },
  "schemaVersion": "3.0.19",
  "updatedAt": "2020-02-17T10:03:03.964Z",
  "devdoc": {
    "author": "Cache Pte Ltd",
    "methods": {
      "addBackedTokens(uint256)": {
        "details": "Function to add a certain amount of backed tokens. This will first take any tokens from the _unbackedTreasury address and move them to the _backedTreasury. Any remaining tokens will actually be minted. This operation will fail if there is not a sufficient supply of locked gold as determined by the LockedGoldOracle",
        "params": {
          "value": "The amount of tokens to add to the backed treasury"
        },
        "return": "A boolean that indicates if the operation was successful."
      },
      "allowance(address,address)": {
        "details": "Function to check the amount of tokens that an owner allowed to a spender.",
        "params": {
          "owner": "address The address which owns the funds.",
          "spender": "address The address which will spend the funds."
        },
        "return": "A uint256 specifying the amount of tokens still available for the spender."
      },
      "approve(address,uint256)": {
        "details": "Approve the passed address to spend the specified amount of tokens on behalf of msg.sender. Beware that changing an allowance with this method brings the risk that someone may use both the old and the new allowance by unfortunate transaction ordering. One possible solution to mitigate this race condition is to first reduce the spender's allowance to 0 and set the desired value afterwards: https://github.com/ethereum/EIPs/issues/20#issuecomment-263524729",
        "params": {
          "spender": "The address which will spend the funds.",
          "value": "The amount of tokens to be spent."
        }
      },
      "backedTreasury()": {
        "return": "address for backed treasury"
      },
      "balanceOf(address)": {
        "details": "Gets the balance of the specified address deducting owed fees and accounting for the maximum amount that could be sent including transfer fee",
        "params": {
          "owner": "The address to query the balance of."
        },
        "return": "An uint256 representing the amount sendable by the passed address including transaction and storage fees"
      },
      "balanceOfNoFees(address)": {
        "details": "Gets the balance of the specified address not deducting owed fees. this returns the 'traditional' ERC-20 balance that represents the balance currently stored in contract storage.",
        "params": {
          "owner": "The address to query the balance of."
        },
        "return": "An uint256 representing the amount stored in passed address"
      },
      "calcInactiveFee(address)": {
        "details": "Calculate the current inactive fee for a given address",
        "params": {
          "account": "The address to check"
        },
        "return": "A uint256 representing current inactive fees for the address"
      },
      "calcOwedFees(address)": {
        "details": "Returns the total number of fees owed on a particular address",
        "params": {
          "account": "The address to check"
        },
        "return": "The total storage and inactive fees owed on the address"
      },
      "calcSendAllBalance(address)": {
        "details": "Calculate the amount that would clear the balance from the address accounting for owed storage and transfer fees accounting for storage and transfer fees",
        "params": {
          "account": "The address to check"
        },
        "return": "A uint256 representing total amount an address has available to send"
      },
      "calcStorageFee(address)": {
        "details": "Calculate the current storage fee owed for a given address",
        "params": {
          "account": "The address to check"
        },
        "return": "A uint256 representing current storage fees for the address"
      },
      "constructor": {
        "details": "Contructor for the CacheGold token sets internal addresses",
        "params": {
          "backedTreasury": "The address of the backed treasury",
          "feeAddress": "The address where fees are collected",
          "oracle": "The address of the LockedGoldOracle",
          "redeemAddress": "The address where tokens are send to redeem physical gold",
          "unbackedTreasury": "The address of the unbacked treasury"
        }
      },
      "daysSinceActivity(address)": {
        "details": "Get the days since the account last sent a transaction to the contract (activity)",
        "params": {
          "account": "The address to check"
        },
        "return": "A uint256 representing the number of days since the address last had activity with the contract"
      },
      "daysSincePaidStorageFee(address)": {
        "details": "Get the number of days since the account last paid storage fees",
        "params": {
          "account": "The address to check"
        },
        "return": "A uint256 representing the number of days since storage fees where last paid"
      },
      "decreaseAllowance(address,uint256)": {
        "details": "Decrease the amount of tokens that an owner allowed to a spender. approve should be called when allowed_[_spender] == 0. To decrement allowed value is better to use this function to avoid 2 calls (and wait until the first transaction is mined) From MonolithDAO Token.sol Emits an Approval event.",
        "params": {
          "spender": "The address which will spend the funds.",
          "subtractedValue": "The amount of tokens to decrease the allowance by."
        }
      },
      "feeAddress()": {
        "return": "address where fees are collected"
      },
      "feeEnforcer()": {
        "return": "address that can force paying overdue inactive fees"
      },
      "forcePayFees(address)": {
        "details": "Contract allows the forcible collection of storage fees on an address if it is has been more than than 365 days since the last time storage fees were paid on this address.  * Alternatively inactive fees may also be collected periodically on a prorated basis if the account is currently marked as inactive.",
        "params": {
          "account": "The address to pay storage fees on"
        },
        "return": "A boolean that indicates if the operation was successful."
      },
      "increaseAllowance(address,uint256)": {
        "details": "Increase the amount of tokens that an owner allowed to a spender. approve should be called when allowed_[_spender] == 0. To increment allowed value is better to use this function to avoid 2 calls (and wait until the first transaction is mined) From MonolithDAO Token.sol Emits an Approval event.",
        "params": {
          "addedValue": "The amount of tokens to increase the allowance by.",
          "spender": "The address which will spend the funds."
        }
      },
      "isAllFeeExempt(address)": {
        "details": "Check if the address given is extempt from transfer fees",
        "params": {
          "account": "The address to check"
        },
        "return": "A boolean if the address passed is exempt from transfer fees"
      },
      "isInactive(address)": {
        "details": "Check if the address is considered inactive for not having transacted with the contract for INACTIVE_THRESHOLD_DAYS",
        "params": {
          "account": "The address to check"
        },
        "return": "A boolean if the address passed is considered inactive"
      },
      "isOwner()": {
        "details": "Returns true if the caller is the current owner."
      },
      "isStorageFeeExempt(address)": {
        "details": "Check if the address given is extempt from storage fees",
        "params": {
          "account": "The address to check"
        },
        "return": "A boolean if the address passed is exempt from storage fees"
      },
      "isTransferFeeExempt(address)": {
        "details": "Check if the address given is extempt from transfer fees",
        "params": {
          "account": "The address to check"
        },
        "return": "A boolean if the address passed is exempt from transfer fees"
      },
      "oracleAddress()": {
        "return": "address for oracle contract"
      },
      "owner()": {
        "details": "Returns the address of the current owner."
      },
      "payStorageFee()": {
        "details": "Manually pay storage fees on senders address. Exchanges may want to periodically call this function to pay owed storage fees. This is a cheaper option than 'send to self', which would also trigger paying storage fees",
        "return": "A boolean that indicates if the operation was successful."
      },
      "redeemAddress()": {
        "return": "address for redeeming tokens for gold bars"
      },
      "renounceOwnership()": {
        "details": "Leaves the contract without owner. It will not be possible to call `onlyOwner` functions anymore. Can only be called by the current owner.     * > Note: Renouncing ownership will leave the contract without an owner, thereby removing any functionality that is only available to the owner."
      },
      "setBackedAddress(address)": {
        "details": "Set the address of backed treasury",
        "params": {
          "newBackedAddress": "The address of backed treasury"
        },
        "return": "An bool representing successfully changing backed address"
      },
      "setFeeAddress(address)": {
        "details": "Set the address to collect fees",
        "params": {
          "newFeeAddress": "The address to collect storage and transfer fees"
        },
        "return": "An bool representing successfully changing fee address"
      },
      "setFeeEnforcer(address)": {
        "details": "Set the address that can force collecting fees from users",
        "params": {
          "enforcer": "The address to force collecting fees"
        },
        "return": "An bool representing successfully changing enforcer address"
      },
      "setFeeExempt(address)": {
        "details": "Set this account as being exempt from all fees. This may be used in special circumstance for cold storage addresses owed by Cache, exchanges, etc.",
        "params": {
          "account": "The account to exempt from storage and transfer fees"
        }
      },
      "setOracleAddress(address)": {
        "details": "Set the LockedGoldOracle address",
        "params": {
          "oracleAddress": "The address for oracle"
        },
        "return": "An bool representing successfully changing oracle address"
      },
      "setRedeemAddress(address)": {
        "details": "Set the address to deposit tokens when redeeming for physical locked bars.",
        "params": {
          "newRedeemAddress": "The address to redeem tokens for bars"
        },
        "return": "An bool representing successfully changing redeem address"
      },
      "setStorageFeeExempt(address)": {
        "details": "Set this account as being exempt from storage fees. This may be used in special circumstance for cold storage addresses owed by Cache, exchanges, etc.",
        "params": {
          "account": "The account to exempt from storage fees"
        }
      },
      "setStorageFeeGracePeriodDays(uint256)": {
        "details": "Set the number of days before storage fees begin accruing.",
        "params": {
          "daysGracePeriod": "The global setting for the grace period before storage fees begin accruing. Note that calling this will not change the grace period for addresses already actively inside a grace period"
        }
      },
      "setTransferFeeBasisPoints(uint256)": {
        "details": "Set a new transfer fee in basis points, must be less than or equal to 10 basis points",
        "params": {
          "fee": "The new transfer fee in basis points"
        }
      },
      "setTransferFeeExempt(address)": {
        "details": "Set this account as being exempt from transfer fees. This may be used in special circumstance for cold storage addresses owed by Cache, exchanges, etc.",
        "params": {
          "account": "The account to exempt from transfer fees"
        }
      },
      "setUnbackedAddress(address)": {
        "details": "Set the address to unbacked treasury",
        "params": {
          "newUnbackedAddress": "The address of unbacked treasury"
        },
        "return": "An bool representing successfully changing unbacked address"
      },
      "simulateTransfer(address,address,uint256)": {
        "details": "Simulate the transfer from one address to another see final balances and associated fees",
        "params": {
          "from": "The address to transfer from.",
          "to": "The address to transfer to.",
          "value": "The amount to be transferred."
        },
        "return": "See _simulateTransfer function"
      },
      "storageFeeGracePeriodDays()": {
        "return": "the current number of days and address is exempt from storage fees upon receiving tokens"
      },
      "totalCirculation()": {
        "details": "Total number of tokens that are actually in circulation, which is total tokens excluding the unbacked treasury",
        "return": "A uint256 representing the total number of tokens in circulation"
      },
      "totalSupply()": {
        "details": "Total number of tokens in existence. This includes tokens in the unbacked treasury that are essentially unusable and not in circulation",
        "return": "A uint256 representing the total number of minted tokens"
      },
      "transfer(address,uint256)": {
        "details": "Transfer token for a specified address",
        "params": {
          "to": "The address to transfer to.",
          "value": "The amount to be transferred."
        }
      },
      "transferFeeBasisPoints()": {
        "return": "the current transfer fee in basis points [0-10]"
      },
      "transferFrom(address,address,uint256)": {
        "details": "Transfer tokens from one address to another. Note that while this function emits an Approval event, this is not required as per the specification, and other compliant implementations may not emit the event. Also note that even though balance requirements are not explicitly checked, any transfer attempt over the approved amount will automatically fail due to SafeMath revert when trying to subtract approval to a negative balance",
        "params": {
          "from": "address The address which you want to send tokens from",
          "to": "address The address which you want to transfer to",
          "value": "uint256 the amount of tokens to be transferred"
        }
      },
      "transferOwnership(address)": {
        "details": "Transfers ownership of the contract to a new account (`newOwner`). Can only be called by the current owner."
      },
      "unbackedTreasury()": {
        "return": "address for unbacked treasury"
      },
      "unsetFeeExempt(address)": {
        "details": "Set account is no longer exempt from all fees",
        "params": {
          "account": "The account to reactivate fees"
        }
      }
    },
    "title": "The CacheGold Token Contract"
  },
  "userdoc": {
    "methods": {}
  }
}