{
  "contractName": "LockedGoldOracle",
  "abi": [
    {
      "constant": false,
      "inputs": [],
      "name": "renounceOwnership",
      "outputs": [],
      "payable": false,
      "stateMutability": "nonpayable",
      "type": "function"
    },
    {
      "constant": true,
      "inputs": [],
      "name": "owner",
      "outputs": [
        {
          "name": "",
          "type": "address"
        }
      ],
      "payable": false,
      "stateMutability": "view",
      "type": "function"
    },
    {
      "constant": true,
      "inputs": [],
      "name": "isOwner",
      "outputs": [
        {
          "name": "",
          "type": "bool"
        }
      ],
      "payable": false,
      "stateMutability": "view",
      "type": "function"
    },
    {
      "constant": false,
      "inputs": [
        {
          "name": "newOwner",
          "type": "address"
        }
      ],
      "name": "transferOwnership",
      "outputs": [],
      "payable": false,
      "stateMutability": "nonpayable",
      "type": "function"
    },
    {
      "anonymous": false,
      "inputs": [
        {
          "indexed": false,
          "name": "amount",
          "type": "uint256"
        }
      ],
      "name": "LockEvent",
      "type": "event"
    },
    {
      "anonymous": false,
      "inputs": [
        {
          "indexed": false,
          "name": "amount",
          "type": "uint256"
        }
      ],
      "name": "UnlockEvent",
      "type": "event"
    },
    {
      "anonymous": false,
      "inputs": [
        {
          "indexed": true,
          "name": "previousOwner",
          "type": "address"
        },
        {
          "indexed": true,
          "name": "newOwner",
          "type": "address"
        }
      ],
      "name": "OwnershipTransferred",
      "type": "event"
    },
    {
      "constant": false,
      "inputs": [
        {
          "name": "cacheContract",
          "type": "address"
        }
      ],
      "name": "setCacheContract",
      "outputs": [],
      "payable": false,
      "stateMutability": "nonpayable",
      "type": "function"
    },
    {
      "constant": false,
      "inputs": [
        {
          "name": "amountGrams",
          "type": "uint256"
        }
      ],
      "name": "lockAmount",
      "outputs": [],
      "payable": false,
      "stateMutability": "nonpayable",
      "type": "function"
    },
    {
      "constant": false,
      "inputs": [
        {
          "name": "amountGrams",
          "type": "uint256"
        }
      ],
      "name": "unlockAmount",
      "outputs": [],
      "payable": false,
      "stateMutability": "nonpayable",
      "type": "function"
    },
    {
      "constant": true,
      "inputs": [],
      "name": "lockedGold",
      "outputs": [
        {
          "name": "",
          "type": "uint256"
        }
      ],
      "payable": false,
      "stateMutability": "view",
      "type": "function"
    },
    {
      "constant": true,
      "inputs": [],
      "name": "cacheContract",
      "outputs": [
        {
          "name": "",
          "type": "address"
        }
      ],
      "payable": false,
      "stateMutability": "view",
      "type": "function"
    }
  ],
  "bytecode": "0x60806040819052600080546001600160a01b03191633178082556001600160a01b0316917f8be0079c531659141344cd1fd0a4f28419497f9722a3daafe3b4186f6b6457e0908290a361068a806100576000396000f3fe608060405234801561001057600080fd5b50600436106100935760003560e01c80638f32d59b116100665780638f32d59b14610109578063a07bcaea14610125578063daa585551461012d578063def19f541461014a578063f2fde38b1461016457610093565b80634cd2c09a14610098578063595eb7bb146100b7578063715018a6146100dd5780638da5cb5b146100e5575b600080fd5b6100b5600480360360208110156100ae57600080fd5b503561018a565b005b6100b5600480360360208110156100cd57600080fd5b50356001600160a01b031661029c565b6100b5610305565b6100ed610396565b604080516001600160a01b039092168252519081900360200190f35b6101116103a5565b604080519115158252519081900360200190f35b6100ed6103b6565b6100b56004803603602081101561014357600080fd5b50356103c5565b610152610458565b60408051918252519081900360200190f35b6100b56004803603602081101561017a57600080fd5b50356001600160a01b031661045e565b6101926103a5565b6101d1576040805162461bcd60e51b81526020600482018190526024820152600080516020610636833981519152604482015290519081900360640190fd5b6001546101e4908263ffffffff6104b116565b60015560025460408051635dcf8d2b60e01b815290516001600160a01b0390921691635dcf8d2b91600480820192602092909190829003018186803b15801561022c57600080fd5b505afa158015610240573d6000803e3d6000fd5b505050506040513d602081101561025657600080fd5b5051600154101561026657600080fd5b6040805182815290517f888aa44810ba96a6fdc6556bc9c1f07297ba0a27abea27f3186952a73f7e2c789181900360200190a150565b6102a46103a5565b6102e3576040805162461bcd60e51b81526020600482018190526024820152600080516020610636833981519152604482015290519081900360640190fd5b600280546001600160a01b0319166001600160a01b0392909216919091179055565b61030d6103a5565b61034c576040805162461bcd60e51b81526020600482018190526024820152600080516020610636833981519152604482015290519081900360640190fd5b600080546040516001600160a01b03909116907f8be0079c531659141344cd1fd0a4f28419497f9722a3daafe3b4186f6b6457e0908390a3600080546001600160a01b0319169055565b6000546001600160a01b031690565b6000546001600160a01b0316331490565b6002546001600160a01b031690565b6103cd6103a5565b61040c576040805162461bcd60e51b81526020600482018190526024820152600080516020610636833981519152604482015290519081900360640190fd5b60015461041f908263ffffffff61050e16565b6001556040805182815290517f13cbc51a7af35ff70319e96fa253d67f85ec8c3d8c831b0f6cc37ecb36eaee7c9181900360200190a150565b60015490565b6104666103a5565b6104a5576040805162461bcd60e51b81526020600482018190526024820152600080516020610636833981519152604482015290519081900360640190fd5b6104ae8161056f565b50565b600082821115610508576040805162461bcd60e51b815260206004820152601e60248201527f536166654d6174683a207375627472616374696f6e206f766572666c6f770000604482015290519081900360640190fd5b50900390565b600082820183811015610568576040805162461bcd60e51b815260206004820152601b60248201527f536166654d6174683a206164646974696f6e206f766572666c6f770000000000604482015290519081900360640190fd5b9392505050565b6001600160a01b0381166105b45760405162461bcd60e51b81526004018080602001828103825260268152602001806106106026913960400191505060405180910390fd5b600080546040516001600160a01b03808516939216917f8be0079c531659141344cd1fd0a4f28419497f9722a3daafe3b4186f6b6457e091a3600080546001600160a01b0319166001600160a01b039290921691909117905556fe4f776e61626c653a206e6577206f776e657220697320746865207a65726f20616464726573734f776e61626c653a2063616c6c6572206973206e6f7420746865206f776e6572a265627a7a7230582096c43a262cc6a73ca93aeef788b33ab257ddd3b79012a0f19c1354a75107da9064736f6c634300050a0032",
  "source": "pragma solidity 0.5.10;\n\nimport \"../node_modules/openzeppelin-solidity/contracts/ownership/Ownable.sol\";\nimport \"../node_modules/openzeppelin-solidity/contracts/math/SafeMath.sol\";\nimport \"./CacheGold.sol\";\n\n\n// Simple contract regulating the total supply of gold locked at any \n// given time so that the Cache contract can't overmint tokens\ncontract LockedGoldOracle is Ownable {\n\n  using SafeMath for uint256;\n  \n  uint256 private _lockedGold;\n  address private _cacheContract;\n\n  event LockEvent(uint256 amount);\n  event UnlockEvent(uint256 amount);\n  \n  function setCacheContract(address cacheContract) external onlyOwner {\n    _cacheContract = cacheContract;\n  }\n\n  function lockAmount(uint256 amountGrams) external onlyOwner {\n    _lockedGold = _lockedGold.add(amountGrams);\n    emit LockEvent(amountGrams);\n  }\n  \n  // Can only unlock amount of gold if it's would leave the \n  // total amount of locked gold greater than or equal to the\n  // number of tokens in circulation\n  function unlockAmount(uint256 amountGrams) external onlyOwner {\n    _lockedGold = _lockedGold.sub(amountGrams);\n    require(_lockedGold >= CacheGold(_cacheContract).totalCirculation());\n    emit UnlockEvent(amountGrams);\n  }\n\n  function lockedGold() external view returns(uint256) {\n    return _lockedGold;\n  }\n  \n  function cacheContract() external view returns(address) {\n    return _cacheContract;\n  }\n}\n",
  "sourcePath": "/home/conor/cache-contract/contracts/LockedGoldOracle.sol",
  "compiler": {
    "name": "solc",
    "version": "0.5.10+commit.5a6ea5b1.Emscripten.clang"
  },
  "schemaVersion": "3.0.11",
  "updatedAt": "2019-08-21T12:39:11.685Z",
  "devdoc": {
    "methods": {
      "isOwner()": {
        "details": "Returns true if the caller is the current owner."
      },
      "owner()": {
        "details": "Returns the address of the current owner."
      },
      "renounceOwnership()": {
        "details": "Leaves the contract without owner. It will not be possible to call `onlyOwner` functions anymore. Can only be called by the current owner.     * > Note: Renouncing ownership will leave the contract without an owner, thereby removing any functionality that is only available to the owner."
      },
      "transferOwnership(address)": {
        "details": "Transfers ownership of the contract to a new account (`newOwner`). Can only be called by the current owner."
      }
    }
  },
  "userdoc": {
    "methods": {}
  }
}